:020000022000DC
:1060000000000120B5620200DD620200DF620200D2
:10601000E1620200E3620200E562020000000000AB
:10602000000000000000000000000000E762020025
:10603000E962020000000000EB620200ED62020073
:10604000F9720200EF62020029760200F57A02007E
:10605000EF620200EF6202005D730200EF62020075
:10606000EF620200EF620200EF620200EF620200E4
:10607000EF620200EF620200EF620200EF620200D4
:10608000EF620200E16A0200EF620200EF620200CA
:10609000EF620200EF620200658D0200EF62020013
:1060A000EF620200EF620200EF620200EF620200A4
:1060B000EF620200EF62020000000000000000003A
:1060C000EF620200EF620200EF620200EF62020084
:1060D000EF620200EF620200EF62020000000000C7
:1060E00000000000000000000000000000000000B0
:1060F00000000000000000000000000000000000A0
:10610000000000000000000000000000000000008F
:10611000000000000000000000000000000000007F
:10612000000000000000000000000000000000006F
:10613000000000000000000000000000000000005F
:10614000000000000000000000000000000000004F
:10615000000000000000000000000000000000003F
:10616000000000000000000000000000000000002F
:10617000000000000000000000000000000000001F
:10618000000000000000000000000000000000000F
:1061900000000000000000000000000000000000FF
:1061A00000000000000000000000000000000000EF
:1061B00000000000000000000000000000000000DF
:1061C00000000000000000000000000000000000CF
:1061D00000000000000000000000000000000000BF
:1061E00000000000000000000000000000000000AF
:1061F000000000000000000000000000000000009F
:1062000010B5054C237833B9044B13B10448AFF3F0
:1062100000800123237010BD6819002000000000D9
:106220006093020008B5034B1BB103490348AFF369
:10623000008008BD000000006C190020609302007F
:10624000154B002B08BF134B9D46A3F5803A002148
:106250008B460F461348144A121A02F09AFE0F4B4F
:10626000002B00D098470E4B002B00D09847002001
:10627000002104000D000D48002802D00C48AFF3A7
:10628000008002F057FE2000290002F0C5F902F05C
:106290003DFE00BF000008000000012000000000DB
:1062A0000000000068190020F01B00200000000022
:1062B000000000000649074A074B9B1A03DD043B18
:1062C000C858D050FBDC00F02FFDFFF7B9FF0000ED
:1062D0008C930200C818002068190020FEE7FEE732
:1062E000FEE7FEE7FEE7FEE7FEE7FEE7FEE7FEE786
:1062F00000B585B000230390194601AA44F20100BD
:10630000CDE9013300F004F805B05DF804FB00BFEF
:1063100072B6094B1B68DB0700D500BEBFF34F8F79
:106320000649074BCA6802F4E0621343CB60BFF32F
:106330004F8F00BFFDE700BFF0ED00E000ED00E093
:106340000400FA05D0E90223D1E90201994208BF0D
:1063500090422CBF01200020704700BF2DE9F04F74
:1063600087B0039000F078FB40B19B49D1E900234E
:1063700012F1807443F10005C1E900450021039842
:10638000964C00F085FB60B1236853B1944B2568AF
:106390001B7823B11DB12B7F002B40F02D810023F2
:1063A00023600121039800F073FB002840F0F38084
:1063B00005A98C4800F0F2FB18B38B4E884F894D2D
:1063C0000378012B00F0C680C0F0CC80022B0ED1E8
:1063D00030464FF0000800F089FC30B180F81C8096
:1063E000304600F083FC0028F8D101233B7005A95A
:1063F000284600F001FC05A9284600F0CFFB002844
:10640000DED1794E794FDFF8D09103E00D2855D0D9
:1064100000232360304600F06FFC2368002800F062
:10642000B48063B12368D0E90201D3E90223994221
:1064300008BF90423BD223681B7F002B7FD13046A0
:1064400000F054FC0546D5E902233846CDE9002387
:1064500000F030FBD9E90023DFF8948112EB000A49
:1064600043F1000BD8E900239B4508BF924503D2B6
:106470001AF1807A4BF1000BDDE90001B0EB0A0064
:1064800061EB0B01012871F1000313DBDFF864A15C
:10649000504559D8AA684FF496030021384600F0B9
:1064A00055FA0028B2D12368002B67D0256007B0C9
:1064B000BDE8F08F0021384600F0DEFA484B1B782B
:1064C000002BA5D02B7F002BA2D0384600F0F2FA8B
:1064D000D8E90023D9E900ABCDE900231AEB00028B
:1064E0004BF1000310461946DDE90023994208BF2D
:1064F000904203D210F1807041F10001D5E90223EE
:10650000994208BF904261D32B6903B92B77D5E933
:1065100005309847296900293FF47AAF2B7F002B7B
:106520003FF476AFD5E9022312EB010A43F1000BE9
:10653000C5E902AB2946304600F0C4FB68E7216894
:10654000304600F0BFFB7AE7384600F0B3FA00EBC4
:106550000A02A0E741682368994213D0304600F050
:10656000CFFB44E743681A7F002A7FF440AF012243
:106570001A774168304600F0A5FB38E7039800F031
:10658000B7F993E70023236031E7002B8FD10398FD
:1065900000F0B2F98BE71548DFF8548000F08AFA72
:1065A0000D4BD3E90067D8E9002316EB000947F14A
:1065B000000A9A4508BF91454846514603D219F151
:1065C00080704AF10001C8E90001F1E62946304631
:1065D00000F078FB1CE700BF88190020081A002093
:1065E00090190020EC190020C4920200C818002065
:1065F000001A0020FFFFB4001D4800F05BFA1D4A9E
:106600001D4BD2E90067D3E9002316EB000847F1E0
:106610000009994508BF90454046494603D218F104
:10662000807049F10001D5E90223994208BF9042E8
:1066300019D32B6903B92B77D5E905309847296918
:1066400000293FF4ACAE2B7F002B3FF4A8AED5E978
:106650000223561843F10007C5E902672946074897
:1066600000F030FB9BE62946044800F02BFB96E641
:10667000C818002088190020001A0020C4920200C7
:1066800010B5134B13491B68134882B0582201936D
:10669000082300F02FFA044610B1204602B010BDC6
:1066A0000E4A0F4801A900F0DFF804460028F4D193
:1066B00001210B4800F0C6F901231946094A084890
:1066C00000F01EF9084B012220461A7002B010BDDE
:1066D000C092020094190020EC1900205D630200B2
:1066E000C8180020FFFF7F00901900204AB1A1F1D7
:1066F00001010368B1FA81F14909C3E904120020DC
:1067000070470720704700BF037F0BB10020704720
:106710002DE9F048826182B004461F480D4600F022
:10672000C9F91E4B1E49D3E90023D1E9006712EBDA
:10673000000B43F1000CBC4508BFB34503D21BF16D
:10674000807B4CF1000C1BEB050221694CF100032E
:10675000C4E9022379B901A9124800F0E3F988B12C
:1067600000254460057001A90E4800F007FA68B9D9
:1067700002B0BDE8F088256101A90A4800F0D2F90D
:106780000028EDD1042002B0BDE8F088024800F0F6
:1067900095F92846ECE700BFC818002088190020AA
:1067A000001A0020EC19002030B5002583B0044603
:1067B000057701A90B4800F0B5F978B101234460D1
:1067C000037001A9074800F0D9F908B903B030BD3A
:1067D000054800F073F9284603B030BD042003B02B
:1067E00030BD00BFEC190020C818002070B4EFF3D2
:1067F000108472B60D4B9A68AAB90D490D4E012549
:106800009D60D1F8805035401D60C1F88060D1F89E
:1068100084505D604FF0FF33C1F88430027004B9DA
:1068200062B670BC704701230370F8E7DC1B0020E0
:1068300000E100E0FC06FFBD094B9A687AB170B92F
:1068400010B4EFF3108172B6064A1C6814605C68DD
:106850005460986001B962B65DF8044B70477047A8
:10686000DC1B002000E100E070B41D4C43791D4E9C
:1068700004EBC30546F823202D7975BB03680A880D
:10688000C3F8082590F904308A78002B1DDB03F14A
:10689000604303F561435201D2B283F8002390F9BB
:1068A0000430002B07DB104903F01F0501225B09B0
:1068B000AA4041F82320437904EBC302012111715E
:1068C00044F83300002070BC7047084903F00F0300
:1068D00052011944D2B20A76E1E7082070BC704731
:1068E0000C1A0020141A002000E100E0FCEC00E08B
:1068F000036801221A607047036801225A607047DA
:10690000F0B404684FF480358D40C4F8085306682D
:106910008C00C6F8485304F5A0740668A4B200279A
:10692000375182B036590468019601F5A87122F0FA
:106930007F42019E44F821200268C2F8445313B1FB
:106940000368C3F8045302B0F0BC70472DE9F04768
:1069500088464FF48037016807FA08F7C1F8487392
:106960000168C1F80873064600684FEA88040119F7
:10697000D0F80455D1F84005C1F8405504F5A0748D
:10698000A4B231684FF0000941F8049082B0401B76
:106990000959009120F07F4001289A4622F07F4556
:1069A000009B0BD1264B4FF4806043F001039847C6
:1069B000336843F804901B590193019B3368D3F863
:1069C0000445C3F844732B1B23F07F43012B08F5C8
:1069D000A87817D130681A4B013540F8285043F099
:1069E00001034FF4806098473268D2F804359C4226
:1069F00022D1C2F8447333680020C3F8047302B094
:106A0000BDE8F087336843F828503268D2F804159F
:106A10006B1ACAF1FF1A013B0AF57F4A23F07F4344
:106A20009A4509D3002BE4D1013542F82850326849
:106A3000D2F804359942DCD00D2002B0BDE8F087D1
:106A4000D092020002680223C2F8443311B10268F6
:106A5000C2F80433704700BF0368D3F8040150B193
:106A6000002282B0C3F80421D3F804310193019BC2
:106A7000012002B0704770474FF48033026803FA78
:106A800001F1C2F848130368C3F80813704700BF48
:106A9000890001F5A07189B20368585840B10022FD
:106AA0005A5082B05B580193019B012002B070479D
:106AB000704700BF0368D3F80405704790F90430AD
:106AC000002B09DB5A09403203F01F030121034860
:106AD00001FA03F340F82230704700BF00E100E004
:106AE000024A034B10681B68184700BF0C1A0020AD
:106AF000141A002099B110B4B2FBF3F403FB142470
:106B0000A4B244B9C0E9001484608281C3812046E4
:106B10005DF8044B704709205DF8044B70470E2068
:106B2000704700BF30B482B050E8013F9DB2C489C5
:106B300025448489A54228BF2D1B0489A54202BF94
:106B4000BFF32F8F002207E0C5EA030540E8015498
:106B5000002CE9D14FF001028DF803200193019B35
:106B60009DF803200B602AB10B880068184402B01E
:106B700030BC704702F0FF031846F8E70A884B88DC
:106B80009A4201D00020704750E8012FC2EA024229
:106B900040E80123002BF7D10120704730B482B0C8
:106BA00050E8023F1FFAA3F5C488A54202BFBFF315
:106BB0002F8F00220DE0C48925448489A54228BF77
:106BC0002D1BC3EA054540E80254002CE8D14FF0E4
:106BD00001028DF803200193019B9DF803200B60B7
:106BE0002AB14B880068184402B030BC704702F0EC
:106BF000FF031846F8E700BF0A884B889A4201D085
:106C00000020704750E8022FC2EA224240E80223E7
:106C1000002BF7D10120704741DF7047064A074B30
:106C200010B5002414701C60BFF35F8F0449054841
:106C300000F032F8204610BD201A0020241A00204F
:106C4000D8920200181A002000B583B002A80023D1
:106C500000F8013DFFF7CAFDF1EE103A23F09F0363
:106C6000E1EE103ABFF35F8F0A4B4022C3F8842154
:106C70009DF80700FFF7E0FD02F06EF828B920BF8D
:106C800040BF20BF03B05DF804FBFFF7C5FF03B0B2
:106C90005DF804FB00E100E001600B6843604A68B6
:106CA000934204BF00234360704700BF436843B171
:106CB000026891680B4443605268934204BF00230A
:106CC0004360704770B54468064620680D4618B9A1
:106CD00008E02468206828B1B3682946984700284E
:106CE000F7D120682860256070BD00BF4368186830
:106CF00008B102681A60704743681868704700BF9F
:106D00004068036873B18B4203D107E0814204D02D
:106D1000034618680028F9D1704718460B680360CD
:106D2000012070471846704730B4A04B1B685A1CAE
:106D300004BF9F4B1B78062B05D19E4B9E4A1B68B8
:106D4000C3F3042313609A4B1B78062B00F00A81CF
:106D5000964B1B685D1C04BF954B1B78062B05D119
:106D6000964B974A1B68C3F342331360904B1B78D2
:106D7000062B00F0E4808D4B1B685C1C04BF8C4B21
:106D80001B78062B08D14FF080430022C3F80C215A
:106D9000C3F81021C3F83825854B1B78062B00F06B
:106DA000AE80824B1B68581C00F09780854A062BEA
:106DB00012681DD0844AD2F8883043F47003C2F8B8
:106DC0008830BFF34F8FBFF36F8F4FF01023D3F88E
:106DD0000022002AC0F22281D3F80432002BC0F234
:106DE0001D817A4B7A4A1A6030BC7047C2F3031295
:106DF000033A032A40F2CE804FF08053754AD3F80D
:106E00000414C2F82015D3F80814C2F82415D3F8D6
:106E10000C14C2F82815D3F81014C2F82C15D3F8A6
:106E20001414C2F83015D3F81814C2F83415D3F876
:106E30001C14C2F84015D3F82014C2F84415D3F836
:106E40002414C2F84815D3F82814C2F84C15D3F806
:106E50002C14C2F85015D3F83014C2F85415D3F8D6
:106E60003414C2F86015D3F83814C2F86415D3F896
:106E70003C14C2F86815D3F840144C48C2F86C159D
:106E8000D3F844140368C2F87015591C00F08880C8
:106E9000062B8FD1504A454B12681B684F4902F0B0
:106EA0004F020A605A1C1ED0062B83D14FF080423D
:106EB000D2F80034DB0766D43C4B1B68062B7FF40A
:106EC00079AF404B1B68033B022B7FF673AF444AFC
:106ED000136843F4806313606CE73549414A0978CD
:106EE0001268062982D0324B1B78062B7FF462AFE2
:106EF0004FF08042D2F80034DB0744D4DCE7394B52
:106F00001B68C3F30313033B032B3FF64AAF364A18
:106F1000D25C12B1354A03211160354AD35C002B93
:106F20003FF43FAF334A344C3449354B05201060B1
:106F3000012500203F22256008601A6031E7294BB7
:106F40001B68C3F30313033B032B3FF614AF2D4A17
:106F5000D35C002B3FF40FAF2B4AD36823F0807330
:106F6000D36008E71F4B1B68C3F30313033B032BDA
:106F70003FF6EEAE254AD35C002B3FF4E9AE244B3E
:106F8000244A1A60E4E6094B6FF001011B68C2F85D
:106F9000001493E720498A5C002A3FF476AF2BE780
:106FA000034B1B78062B3FF475AF9CE730010010B4
:106FB000E00F00F0240300104035014044020010AF
:106FC0003C0500403401001000ED00E0D018002026
:106FD0000090D00300C0004058020010E40E0040B2
:106FE0003C170040E80F00F0E8920200A0050040C6
:106FF000E8920200105600408856004018560040A3
:1070000014560040E8920200F0ED00E0E892020021
:1070100074C007400DF0ADBAE4920200184B012293
:10702000C3F80425D3F80024002AFBD04FF0102326
:1070300015221349C3F80022D1F80034002BFBD0ED
:107040004FF0102215210E4BC2F80412D3F8002481
:10705000002AFBD000220A49C3F80425D1F80034E5
:10706000002BFBD0BFF34F8F0649074BCA6802F4D1
:10707000E0621343CB60BFF34F8F00BFFDE700BF5B
:1070800000E0014000ED00E00400FA05054A4FF081
:10709000A043105CD3F8043523FA00F0C04300F09D
:1070A00001007047EC920200044B195C4FF0A042C3
:1070B00001238B40C2F80C35704700BFEC920200F0
:1070C000044B195C4FF0A04201238B40C2F80835F5
:1070D000704700BFEC9202004FF0A04310B44FF491
:1070E00080204FF400344FF400214FF48012C3F895
:1070F0000845C3F80805C3F80815C3F808255DF866
:10710000044B70474FF0A04310B44FF480204FF46D
:1071100000344FF400214FF48012C3F80C45C3F83B
:107120000C05C3F80C15C3F80C255DF8044B70472B
:10713000074B4FF0A041185CD1F804350122824082
:1071400022EA03001340C1F80805C1F80C35704766
:10715000EC92020010B570B101280BD10D4C2369DF
:10716000A0703BB1D3E90023012022619847236935
:10717000002BF7D110BD074CA36801226270002BD1
:10718000F8D0D3E900230020A2609847A368002B21
:10719000F7D1EFE7281A002070B910B5074CA368A3
:1071A000012262703BB1D3E900230020A26098471E
:1071B000A368002BF7D110BD704700BF281A00202C
:1071C00030B5012883B025D01AD3032816D100F09A
:1071D00065F802A80023264C00F8013DFFF706FBE6
:1071E000E368013BE360E36823B9224BD3F8005422
:1071F000002D36D09DF80700FFF71EFB03B030BD11
:107200001D4B0122C3F88020BFF34F8FBFF36F8F58
:1072100003B030BD02A80023154C00F8013DFFF774
:10722000E5FA237853B1E3689DF8070001330122A2
:10723000E360A270FFF700FB03B030BD0F4863604E
:10724000A3602361E36000F01BF801F085FD60B1ED
:107250000123084A2370D2F80024002AE3D0A37047
:10726000E1E700F02DF8A570C4E700F017F8EFE7AC
:10727000281A00200000014000E100E055710200E2
:10728000054A13792BB90121106053711846117109
:1072900070478520704700BF3C1A0020074B1A68D2
:1072A000D20704D4C02283F8002301221A604FF0D1
:1072B00080430122C3F81825704700BF00E100E0B9
:1072C00010B40B4B0B494FF0804200200224C2F84F
:1072D000084383B018601B680193012301980B6079
:1072E000D2F81834DB03FBD403B05DF8044B7047CD
:1072F000040100400C00004010B5154B1A6882B024
:107300007AB10021134A19601B68507900934FF03D
:1073100080410123009CC1F8083310B911685371F2
:1073200088470D4B1A6882B100221A601B680193CE
:107330004FF080420221074B0198C2F808131B68E6
:10734000012002B0BDE81040184702B010BD00BFD8
:10735000000100403C1A0020040100402DE9F043E8
:1073600085B00023A34A01931168012900F0AC8085
:107370001E46A14B1A68012A00F0B6809F4B1A687E
:10738000012A00F0C3809E4B1A68012A00F0D080C9
:107390009C4B1A68012A00F0DD809B4B1A68012A79
:1073A00000F0EA80994B1A68012A00F0F780984BA8
:1073B0001A68012A0CD0974B1B68012B00F0FC8047
:1073C00016F0FF0F15D1002E30DB05B0BDE8F083BD
:1073D000914AD2F804231206EDD500221A601A68E9
:1073E00002926033029A1B68012B46F0800600F07F
:1073F000E3808A4F01250024A30003F180432E423D
:1074000003F5C0434FEA45050BD0D3F8100557F8F4
:107410002420D3F81015C0F30420C1F3014102B1B8
:1074200090470134082CE7D1002ECEDA7C4E4FF085
:10743000A047A6F154087B4C012514F9011B4B1CF5
:1074400036D0C9B204AB21F0C00003EBD00201F08A
:10745000070312F80C2C05FA03F31A4228D0830014
:1074600003F1A04305FA00FED3F80097D3F80027F4
:1074700022F4403CC3F800C7C9F30142022AD3F802
:10748000009714BF4FF4003C4FF4403C49EA0C090C
:1074900008EB000CC3F80097C7F820E59CF93030E2
:1074A00058F8233023B18909032940F09580984783
:1074B000B442C2D1D7F820350193C7F82035002B4C
:1074C000B9D105B0BDE8F0835349D1F8046316F093
:1074D00001063FF44EAF136013680293029B464BC4
:1074E0001A68012A7FF44AAF4B4AD2F80423920764
:1074F0007FF544AF00221A601B680293029B3F4B4A
:107500001A68012A46F002067FF43DAF424AD2F8DB
:10751000042357077FF537AF00221A601B680293D8
:10752000029B374B1A68012A46F004067FF430AFFD
:10753000394AD2F8042315077FF52AAF00221A60D2
:107540001B680293029B2F4B1A68012A46F008061B
:107550007FF423AF304AD2F80423D4067FF51DAF61
:1075600000221A601B680293029B274B1A68012AAB
:1075700046F010067FF416AF274AD2F8042390068F
:107580007FF510AF00221A601B680293029B1F4B0D
:107590001A68012A46F020067FF409AF1E4AD2F885
:1075A000042351067FF503AF00221A601B68029383
:1075B000029B46F04006FAE6164B00221A601B6852
:1075C00003934FF0A043039AD3F82025019246F08D
:1075D0000046C3F82025F3E6022A06D0032A7FF4EA
:1075E00067AF02297FF464AF61E701297FF460AFE0
:1075F0005DE700BF00610040046100400861004099
:107600000C610040106100401461004018610040AE
:107610001C6100407C61004000600040441A002072
:10762000981A0020941A0020014B1B68184700BFCD
:10763000A01A0020104B984201D00020704730B5AE
:1076400083B002A8002300F8013D0D46FFF7CEF8F5
:107650000A4B1C7934B19DF80700FFF7EDF81120B3
:1076600003B030BD01229DF807001D601A71FFF7BD
:10767000E3F82046F4E700BF00200040A01A0020F5
:1076800038B5C54B1C6814F0010401D1204638BD43
:10769000C24C2378054663B1C14B1B780020207093
:1076A00023B3FFF70DFD0120FFF70AFD0320FFF7CD
:1076B00007FD172D00F26D81DFE815F0C300EC0027
:1076C000EC001001D90023010201360128001B0043
:1076D00028001B006A0071007100710071007100C8
:1076E0009A00AD0035004B0064006400FFF7F4FC25
:1076F000DFE7012318462370FFF71AFD00224FF43D
:107700000051A848BDE83840FEF7FEBF01231846E7
:107710002370FFF70DFD002240F26661A148BDE82D
:107720003840FEF7F1BF9E4B1B78002B00F016810E
:107730000020FFF7C5FC0120FFF7C2FC0320FFF784
:10774000BFFC0120FFF7B0FC974B14221A700024F5
:107750009CE7934B1B78002B00F003810020FFF780
:10776000AFFC0120FFF7ACFC0320FFF7A9FC0020D1
:10777000FFF79AFC0120FFF797FC8B4B15221A703C
:10778000002483E7FFF7BEFC874B00241D707DE7D4
:10779000FFF7B8FC844B0C221A70002476E783486C
:1077A000FFF702F80446D5F1110000F0C580002C67
:1077B00040F0C280012814D0C82505FB00F54FF425
:1077C00000434FF47A700021C3FB05014FF4FA62C5
:1077D000002301F0E9FB224601467448FEF794FFBE
:1077E00004460220FFF760FC6D4B01221A704DE742
:1077F0006B4B1B78002B00F0AE800020FFF760FC85
:107800000120FFF75DFC0320FFF75AFC664B1222B4
:107810001A7000243AE7624B1B78002B00F093802B
:107820000020FFF74DFC0120FFF74AFC0320FFF783
:1078300047FC0020FFF738FC5B4B13221A70002432
:1078400024E7574B1B78002B00F08E800020FFF7B9
:1078500037FC0120FFF734FC0320FFF731FC5148CF
:10786000FEF7A2FF504B002204461A700EE70020DC
:10787000FFF70CFC002869D00020FFF721FC4FF433
:107880008031494B474804241C700022BDE8384031
:10789000FEF73ABF0020FFF7F9FB00286CD000206C
:1078A000FFF70EFC022D47F2333118BF4FF4803141
:1078B0003D4B3C481D700022BDE83840FEF724BF18
:1078C0000020FFF735FC384B364806241C70002298
:1078D00040F26661BDE83840FEF716BF0020FFF7B2
:1078E000D5FB002843D00020FFF7EAFB43F23331F9
:1078F0002D4B2C4803241C700022BDE83840FEF7B5
:1079000003BF0020FFF7C2FB00283FD00020FFF795
:10791000D7FB254B234805241C70002240F6CD419F
:10792000BDE83840FEF7F0BE0020FFF7BDFB1E4B60
:1079300007221A700024A9E60220FFF7C1FB184BAA
:1079400000221A70A2E6FFF7C7FB72E7FFF7ACFB55
:1079500041F69A1195E7FFF7BFFB57E7FFF7BCFB2E
:10796000EFE6FFF7B9FB02E7FFF7B6FB77E7FFF7B4
:107970009BFB40F6CD41BBE7FFF796FB41F69A1122
:1079800040F6CD43022D08BF194691E7FFF78CFB67
:10799000BFE700247AE600BFF01A0020F41A0020A6
:1079A000A81A0020D01A0020F51A0020B01A0020D2
:1079B00030B585B0057804798DF800508DF8044015
:1079C000457984688DF805508DF80640C568084AE9
:1079D000084B8DF80750D0E9044053F8213052F895
:1079E0002110CDE902406846984705B030BD00BF80
:1079F000F81A0020001B00202DE9F04F824690F875
:107A00000090384D384845F829300C46497B40F8FD
:107A1000292081B0934669B9344ABBF1000F4B4627
:107A200021460AF1040008BF002201B0BDE8F04F72
:107A300000F084B923682E4A4FF0A04503F5E073A7
:107A400040F20C6145F82310636803F5E0730127E9
:107A500045F82310236807FA03F3C5F8083563686F
:107A600007FA03F3C5F80835236803F5E07340F21D
:107A70000D6145F82310636803F5E07342EA0708D7
:107A800045F823104FF48070C04700266268D5F88F
:107A90001035D340DB074FF4807020D4236807FAF9
:107AA00003F3C5F80C35C047236807FA03F3013622
:107AB000C5F808354FF48070C047092EE6D16268DA
:107AC00001254FF0A04605FA02F2C6F80C254FF446
:107AD0008070C04763689D40C6F808559CE7002E3B
:107AE000EED199E7F81A0020001B0020B1790200BE
:107AF000F0920200F0B58C4BD3F824218DB002B384
:107B00000022C3F82421D3F824210592059AD3F842
:107B10000421B2B9854C0222A168C3F80813A260FF
:107B2000A268C3F80423D3F86021002A40F0BF8084
:107B30007D4B01221A625A61012384F82E300DB068
:107B4000F0BD794DD5F80431ABB10023774CC5F8C1
:107B50000431266AD5F8042104927706049A5AD48F
:107B600094F82E20002A56D1217B032951D8DFE832
:107B700001F0C6BFB33D6D4CC5F84831D5F848217A
:107B8000237B0192019A002B7BD104F10C0EBEE8FD
:107B90000F000DF11C0CACE80F0094F83070236A54
:107BA000DEF80020CCF8002003F004064FB9604A4C
:107BB000604BC5F80072A760C5F808230822C3F817
:107BC0008021594AD2F8C434C2F8C434990750D538
:107BD00001238DF818300FB984F82F70002E6CD166
:107BE000D4E9003106A898470DB0F0BDA1684D0357
:107BF00040F18D804C482169D0F84C05884200F056
:107C00008680494900220620C1F800250122C1F8DA
:107C1000000584F82E2016F0040694F83070D0D1B8
:107C2000DFF814C1DFF800E1BCE80F0007AD0FC5B5
:107C3000DCF800302B60CEF86061DEF86031029332
:107C4000029BCEF85C61DEF85C310393039B1FB1AD
:107C500094F82E30002BB4D0334B364934480022F0
:107C6000C3F80022A260C3F808030823C1F88031DA
:107C7000A7E75A0717D4DB0724D503238DF818305C
:107C8000A9E74FF4007140F20222294BC5F8001217
:107C9000A260C5F80833A368C5F804330123AB60BC
:107CA0002B620DB0F0BD02238DF8183093E7D3F8A6
:107CB00000329B053FF540AF3AE794F82E30002B99
:107CC0008ED191E794F82E301BB104238DF8183033
:107CD00081E78DF818307EE713492069D1F84C55BB
:107CE00085428ED1D1F83C056169884289D190E7FF
:107CF0000D482169D0F83C05884282D189E70A48BD
:107D00002169D0F84C0588427FF47BAF81E7A168F8
:107D100048033FF57EAF04486169D0F84C058842BE
:107D20007FF46FAF75E700BF00300040081B0020F4
:107D300002029C0100E100E0141B00202DE9F84F35
:107D40000779DFF8EC80342404FB07F608EB06091A
:107D500099F82D50002D58D10C46834631490068C2
:107D60001D469246FFF766FC002851D148F806A050
:107D7000C9F80800C9F8045089F82F0089F83000C4
:107D8000637B89F8323023684FF0A04203F5E0733B
:107D900040F20C6142F82310636803F5E07342F887
:107DA0002310D4E90021DBF80030C3F80825C3F81C
:107DB0000C15A268C3F82425BAF1000F1DD0DBF81A
:107DC0000010237B090B4AB25B01002ADBB222DBE5
:107DD00002F1604202F5614282F80033DBF80030C4
:107DE0001B0B5AB2002A08DB012152090E4C03F08A
:107DF0001F0301FA03F344F82230342303FB078303
:107E0000012283F82D20BDE8F88F0820BDE8F88F07
:107E10001120BDE8F88F054A01F00F010A441376DE
:107E2000DCE700BFF57A020000E100E0FCEC00E0D6
:107E3000081B0020037906490268342000FB031365
:107E40000220062183F82D00C2F80015704700BFFC
:107E5000081B00202DE9F04389B090F804C09DF87C
:107E60004080954E04684FF0000E3427F04507FB24
:107E70000C6502F060400CBFF0464FF02008B0F1F6
:107E8000005F85F82EE061D18C48C4F8080395F8AE
:107E90002FE00EF0FF00BEF1000F5BD14FF00C0E93
:107EA00017FB0CE706EB070E4FF0010985F82F9042
:107EB000F055CEE90130CEE903208EF80110C4F868
:107EC0008815C4F80401D4F8041101910199C4F88B
:107ED0002401D4F8241102910299C4F86001D4F865
:107EE000601103910399C4F84801D4F84811049132
:107EF000049985F83000C4F85005C5F82080C4F80E
:107F00004005C4F84425C4F84835B8F1000F28D11D
:107F10004FF400720223C4F80022AB603423012224
:107F200003FB0CF32262A260F158334451B39A6808
:107F300042F002029A609A6842F400729A609B686A
:107F4000C4F80433002009B0BDE8F083102009B064
:107F5000BDE8F083AB68C4F80433112009B0BDE874
:107F6000F0834FF480724FF48023C4F80022AB609A
:107F7000D4E7226262612DB1C4F84811D4F84831C7
:107F80000693069BD4F84831002B66D0D4F8043110
:107F90002BB1C4F80411D4F804310593059BD4F82F
:107FA0002431A3B10123C4F82411D4F8240107908B
:107FB0000798D4F86051D4F80002002D56D08705F8
:107FC00000F48075D5D5002DD6D1002BDAD034231E
:107FD000D4F8C424C4F8C42403FB0C63002183F840
:107FE0002F10002A45D11B7B032BABD8DFE803F011
:107FF000232C1502342303FB0C639A6852034CD5DF
:108000001B69D4F84C259A4247D000220623C4F8B5
:1080100000250320C4F8003599E7342303FB0C66E0
:10802000D4F84C2533699A42EFD17369D4F83C25D2
:108030009A42EAD186E7342303FB0C66D4F84C2538
:1080400033699A42E1D17DE7342303FB0C66D4F80F
:108050003C2533699A42D8D174E7D4F80431002B17
:1080600097D1D4F8240100288CD09CE72262626169
:1080700088E712F0010F18BF4FF4024048F20123C5
:1080800008BF032012F0020F18BF184648F202235F
:1080900012F0040F18BF184659E7342303FB0C668F
:1080A000B36813F480237FF44DAF7269D4F84C1594
:1080B0009142AAD146E700BF081B002002029C01A2
:1080C0002DE9F04390F804E08F4F0468342606FB56
:1080D0000EF807EB080502F060404FF0000CB0F11D
:1080E000005F89B085F82EC05CD18848C4F80803C9
:1080F00095F82FC00CF0FF00BCF1000F56D14FF0E7
:108100000C0C16FB0EC607EB06094FF0010C85F8A8
:108110002FC007F806C0C9E90130C9E9032089F872
:108120000110C4F88815C4F80401D4F804110191B1
:108130000199C4F82401D4F8241102910299C4F8D9
:108140006001D4F8601103910399C4F84801D4F890
:10815000481104914FF480560221DDF8109085F803
:108160003000C4F850052862C4F84005C4F834252E
:10817000C4F83835C4F80062A960C4F820C0C4F857
:1081800000C057F80830C3B1AB6843F00203AB60DE
:10819000AB6843F40073AB60AB68C4F8043309B058
:1081A000BDE8F083102009B0BDE8F083AB68C4F8E7
:1081B0000433112009B0BDE8F0836146D4F84821AA
:1081C00032B3D4F804212AB1C4F80431D4F804211C
:1081D0000592059AD4F824212AB30122C4F8243147
:1081E000D4F8240107900798D4F86051D4F800021D
:1081F00065B3860500F480752BD595B1C4F8483178
:10820000D4F848210692069AD4F84821002AD8D1F9
:10821000D4F80421002AD7D1D4F824010028CDD0E5
:10822000DCE7002ACAD03423D4F8C424C4F8C42418
:1082300003FB0E73002183F82F10002A42D11B7B11
:10824000032B2BD8DFE803F0352C1D0A2162616176
:10825000B4E721626161002DD0D1AFE7342303FB85
:108260000E739A68520341D51B69D4F84C259A4283
:108270003CD000220623C4F800250320C4F80035B2
:108280008DE7342303FB0E77D4F84C253B699A42E3
:10829000EFD17B69D4F83C259A42EAD100207EE7F1
:1082A000342303FB0E77D4F83C253B699A42E0D196
:1082B000F4E7342303FB0E77D4F84C253B699A424C
:1082C000D7D1EBE712F0010F18BF4FF4024048F28C
:1082D000012308BF032012F0020F18BF184648F20E
:1082E000022312F0040F18BF184658E7342303FB8B
:1082F0000E77B86810F48020D0D17B69D4F84C2573
:108300009A42B6D14BE700BF081B002002029C0135
:10831000037813B9014B01221A7070473C1B0020EF
:1083200030B585B000220E210D20039213464FF088
:10833000CC75022400910190074A084802956946CD
:108340008DF80C40FFF758FB08B1FDF7D1FF04484A
:10835000FFF770FD05B030BD11830200FC920200F2
:108360000093020030B50C4B0C4C1B880C4885B0B8
:1083700004AA002522F8043D7021009502232570EF
:10838000FFF768FD20B92378002BFCD005B030BD85
:10839000FDF7AEFFF7E700BFF89202003C1B00209C
:1083A0000093020038B5084C084A09480025062306
:1083B00070212570FFF784FE18B92378002BFCD0BC
:1083C00038BDFDF795FFF8E73C1B0020E81B0020B7
:1083D0000093020010B4734B1C785A7802EB04220D
:1083E0000A80D9781A7902EB01220280DA78D24326
:1083F000D2B25100C9B2120648BF81F031014A0021
:10840000D2B20C0648BF82F031025100C9B2100648
:1084100048BF81F031014A00D2B2090648BF82F05C
:1084200031025100C9B2120648BF81F031014A0041
:10843000D2B20C0648BF82F031025100C9B2100618
:1084400048BF81F031014A00D2B20906197948BF0C
:1084500082F031024A405000C0B2140648BF80F09A
:1084600031004100C9B2000648BF81F031014A0025
:10847000D2B2090648BF82F031025100C9B21206D9
:1084800048BF81F031014A00D2B20C0648BF82F0E9
:1084900031025100C9B2100648BF81F031014A00D3
:1084A000D2B2090648BF82F03102540012061A788F
:1084B0006FEA0202D2B2E4B24FEA4201C9B248BF47
:1084C00084F03104100648BF81F031014A00D2B275
:1084D000090648BF82F031025100C9B2100648BFF8
:1084E00081F031014A00D2B2090648BF82F0310260
:1084F0005100C9B2100648BF81F031014A00D2B222
:10850000090648BF82F031025100C9B2100648BFC7
:1085100081F031014A00D2B20906597848BF82F091
:1085200031024A405000C0B2120648BF80F031000C
:108530004100C9B2000648BF81F031014A00D2B201
:10854000090648BF82F031025100C9B2100648BF87
:1085500081F031014A00D2B2090648BF82F03102EF
:1085600051001006C9B248BF81F031014A00D2B2B1
:10857000090648BF82F03102500012065A79C0B293
:1085800048BF80F03100A24207D19B785DF8044BD0
:10859000181A18BF4FF0FF3070474FF0FF305DF8EA
:1085A000044B7047E81B00203FDF704772DF7047C5
:1085B00073DF704730B583B00023ADF80430ADF8F9
:1085C0000630134DFFF7CEFE0D2445F001054FF4A4
:1085D0007A40A847013CFAD1FFF7E4FE0DF106010D
:1085E00001A8FFF7F7FEBDF80620BDF804300949E1
:1085F000100A60F3070462F30F241A0A62F31744A7
:108600000A6863F31F64C2F8194003B030BD00BFAD
:1086100010930200D418002080B584B0FEF730F823
:10862000002840F098804D4A4D480121FEF75EF841
:10863000FEF7F4FA002840F08B8000F003FB0028DE
:1086400040F0838004AC002344F80C3D0120214617
:1086500000F0D0FB002875D1204600F025FC002852
:108660006DD1404F404D0120FFF79EFF002659235A
:108670003E49ADF80430384617233C220391314679
:10868000ADF8083000F085FC042331461822284656
:10869000FB707C623E7000F07CFC354A6E603846B0
:1086A0004FF44863052752F8041B2E75AE812F70D6
:1086B000AB6000F0C7F800283ED12B4A2C492D486A
:1086C000FFF774FF60BBFFF72BFE0023ADF802300D
:1086D000ADF80430284DFFF745FE0D2645F00105A5
:1086E0004FF47A40A847013EFAD1FFF75BFE2146DE
:1086F0000DF10200FFF76EFE1E4B01211878FFF707
:1087000057FFB0B90220FEF7BBFF78B900224FF443
:1087100000411A48FDF7F8FF28B9FEF795FAFCE783
:10872000FDF7E6FDCFE7FDF7E3FDF6E7FDF7E0FD3A
:10873000ECE7FDF7DDFDE5E7FDF7DAFDBDE7FDF769
:10874000D7FD8EE7FDF7D4FD86E7FDF7D1FD79E78C
:10875000FDF7CEFD71E7FDF7CBFD64E7B5850200BF
:1087600018930200401B00207C1B0020E81800200A
:10877000D4180020E418002010930200B81B002039
:108780006DDF704779DF70477DDF704764DF7047CA
:108790002DE9F04F83B004880C9EBDF83490B6F8F4
:1087A00000A0002C39D09846002317468B4605467A
:1087B0001C4603E02A880134A24224DD6A6852F88C
:1087C0002400019000220DF1030101A8FFF7DEFF54
:1087D00020BB9DF80320BA42ECD13288B91803B30C
:1087E00089452BDB42440DF1030101A80123FFF76A
:1087F000CDFF98B931889DF803200A4432802A8839
:108800000134A242DADC43B13388013BA3EB0A0313
:108810009BB2FF2B12D808F80A30002003B0BDE845
:10882000F08F02310132894592B207DB328008F8BD
:1088300002B03288013292B23280D3E70C2003B00A
:10884000BDE8F08F2DE9F04700231788138090F8DA
:108850002D3086B0144605460E46002B40F0FB80B6
:10886000AA78002A40F0FD80EA78A2B1D91CB9426A
:1088700000F2F3800221F154238801339BB20121DD
:108880002380F15423880B449BB22380F254238825
:108890000B449BB223806A68AAB1D91CB94200F28A
:1088A000DC80022192F90020F154238801339BB22D
:1088B0000A212380F154238801339BB22380F25490
:1088C0002388013323802B89002B40F01B812B8AC6
:1088D000002B40F02F812B8B002B40F043812B6A23
:1088E000002B44D02288911DB94200F2B68019882D
:1088F000052940F203816FF4486801EB080080B25B
:108900004FF27D3C604540F2F9805888052840F2DE
:10891000F5806FF4486E86441FFA8EFEE64540F2FD
:10892000ED804FF6FF7C614504D0604502D0814266
:1089300000F2E4800521B1542288013292B2122162
:108940002280B1542288013292B222801988B15417
:108950003244090A51702288023292B222805B8826
:10896000B35432441B0A53702388023323806B6A4A
:10897000002B2FD09988B4F800C0881C0CF102029B
:108980000244BA4269D8FE2867D8033106F80C10B1
:108990002288013292B2FF212280B1542288013212
:1089A00092B222801988B1543244090A5170208849
:1089B000023080B220809A8862B1996803930029BE
:1089C00000F09C80304400F0D9FA039B9A882388F9
:1089D0001344238095F82C30002B40F08A802878AF
:1089E00000283BD02B88012B00F08880228802F1E0
:1089F000020CBC4531D8012804D16B7802331344F2
:108A00009F422AD3BB1E9B1A06A99BB221F8083DA0
:108A100006EB0C00FFF7B8FE00BB2978BDF810206C
:108A2000022900F0048168789042C0F0FB809342F4
:108A3000C0F0F8800921FE2A0FD82388501CF0547A
:108A4000238801339BB22380F154238801331A44D5
:108A50002280002002E0082F23D80C2006B0BDE8B9
:108A6000F0870433BB42F8D804A8FFF78BFE002838
:108A7000F4D12388BDF810200321F1542388013359
:108A80009BB219212380F154238801339BB2F11842
:108A90002380F254120A4A70238802339BB2238047
:108AA000E2E604A8FFF76CFE0028D7D1138808225D
:108AB000CA54238801339BB21B222380CA542088C6
:108AC000013080B22080062208440DF1110100F02F
:108AD00055FA23889DF8102006339BB212F0FE024F
:108AE00018BF01222380F254238801339BB22380D4
:108AF000B6E6D5F82880B8F1000F4CD1072006B0B3
:108B0000BDE8F08705F108080222CDE9004740469C
:108B100011463346FFF73CFE00289FD1CDE90047C0
:108B20004046334610220621FFF732FE00283FF46C
:108B3000CEAE93E705F11008CDE900474046334635
:108B400002220321FFF724FE002887D1CDE9004748
:108B50004046334610220721FFF71AFE00283FF453
:108B6000BAAE7BE705F11808CDE900474046334629
:108B700002221421FFF70CFE00287FF46FAFCDE92D
:108B800000474046334610221521FFF701FE00281A
:108B90003FF4A5AE62E7B8F804200232FE2A3FF6A1
:108BA0005CAF23884FF000094FF0160A0132F254EF
:108BB000238801339BB2238006F803A02388013366
:108BC0009BB22380B8F80020F2543344120A5A7042
:108BD000238802339BB22380B8F80410F0180A46A9
:108BE00061B1D8F808301946002B87D000F0C6F9DB
:108BF000B8F80420238813449BB2238009F10109AB
:108C000095F82C205FFA89F94A4509EB49087FF667
:108C1000E6AEAA6A02EB8808B8F804200232FE2AFF
:108C2000C4D91AE7012906D01A46082103E793425E
:108C3000BFF400AFF8E78342F6D302460821FAE614
:108C400010DF704770B53B4D2B7884B0002B63D19B
:108C5000394E3A49012302A83370FEF71DF8039BF1
:108C6000002B4FD1364902A8FEF716F8039B4BB1F3
:108C7000D3E900210020904702A8FEF717F8039BD4
:108C8000002BF5D12F4A002312688DF8083002A876
:108C90000192FDF7ABFD2C4901A8FFF7D1FFB0FA17
:108CA00080F304465B099DF808002B70FDF7C4FDB6
:108CB000002C2ED1254B26491C70347091F81623B8
:108CC000EC2352091341DB072FD5224B9A683ABB9C
:108CD0004FF480030B601A4902A8FDF7DDFF039BE8
:108CE000BBB1D3E900210120904702A8FDF7DEFFC8
:108CF000039B002BF5D10CE002A8FDF7D7FF039BE7
:108D0000002BAFD0D3E90021002090470028F3D1F9
:108D10000446204604B070BD0824204604B070BD4F
:108D20001A6842F480021A60D5E742F20200FDF7A9
:108D3000DFFAD0E7D91B0020D81B002020930200C7
:108D4000389302001C93020011630200DA1B00201A
:108D500000E100E0DC1B0020014B1878704700BFE9
:108D6000D91B002000B583B068460849FDF794FF81
:108D7000019B43B1D3E9002090476846FDF796FF79
:108D8000019B002BF6D103B05DF804FB2C9302008D
:108D900060DF704769DF704761DF7047134B1B78F6
:108DA0001BB330B5124D91B034240DF1020103A86C
:108DB000ADF80240FFF7F0FF88B9294601A8FDF79A
:108DC0006BFF029B002BF0D0D3E9002103A8904752
:108DD00001A8FDF76BFF029B002BF5D1E5E7052805
:108DE00001D0FDF785FA11B030BD7047DB1B0020C4
:108DF00044930200002953D070B52A4B0B6084B015
:108E00000D4604460C2201A8002100F0C2F80126FC
:108E1000062301A92A68ADF8083020208DF8044007
:108E20008DF80660FFF7B6FF01A80C220021002490
:108E300000F0AFF801A92A688DF8054040208DF8B0
:108E400006408DF80740FFF7A5FF214601A80C2238
:108E500000F09FF801A92A688DF804403046FFF71A
:108E600099FF214601A80C2200F093F8F82301A9EC
:108E70002A680193A120FFF78DFF214601A80C224B
:108E800000F087F89DF804302A6864F3000301A914
:108E9000A0208DF80430FFF77DFF204604B070BDA0
:108EA0000E207047C818002008B5FFF771FF10B9F1
:108EB000014B01221A7008BDDB1B00204BDF7047FD
:108EC00010B5114C84B001A8FFF7F8FFA8B92146EE
:108ED00002A8FDF7E1FE039B002BF4D0D3E90021AB
:108EE0000198904702A8FDF7E1FE039B002BF5D106
:108EF00001A8FFF7E3FF0028E9D0052801D0FDF71E
:108F0000F7F904B010BD00BF5093020008B5074B3D
:108F1000044613B10021AFF30080054B1868836A43
:108F200003B19847204600F03DF800BF0000000064
:108F30005C93020070B50D4E0D4CA41BA4100025CF
:108F4000A54209D10B4E0C4C00F0AEF9A41BA410A5
:108F50000025A54205D170BD56F82530984701354A
:108F6000EEE756F8253098470135F2E76019002002
:108F700060190020601900206419002010B5431EFC
:108F80000A44914200D110BD11F8014B03F8014F82
:108F9000F7E702440346934200D1704703F8011BF0
:108FA000F9E70000FEE700BF53B94AB9002908BF3E
:108FB00000281CBF4FF0FF314FF0FF3000F072B9B6
:108FC000ADF1080C6DE904CE00F006F8DDF804E020
:108FD000DDE9022304B070472DE9F047089E0446FE
:108FE0008846002B4BD18A42154667D9B2FA82F2E5
:108FF0004AB1C2F1200701FA02F320FA07F79540BF
:1090000047EA030894404FEA154E230CB8FBFEF7DD
:109010001FFA85FC0EFB178843EA084307FB0CF197
:10902000994209D9EB1807F1FF3080F01B81994272
:1090300040F21881023F2B445B1AA4B2B3FBFEF04E
:109040000EFB103344EA034400FB0CFCA44509D991
:109050002C1900F1FF3380F00781A44540F2048110
:1090600002382C4440EA0740A4EB0C0400271EB150
:10907000D4400023C6E900433946BDE8F0878B425F
:1090800009D9002E00F0EB800027C6E90001384620
:109090003946BDE8F087B3FA83F7002F47D18B42FA
:1090A00002D3824200F2FA80841A61EB03030120AA
:1090B0009846002EE0D0C6E90048DDE702B9FFDEA1
:1090C000B2FA82F2002A40F08F80491B4FEA154E17
:1090D0001FFA85F80127B1FBFEFC230C0EFB1C11C7
:1090E00043EA014308FB0CF1994207D9EB180CF154
:1090F000FF3002D2994200F2CD808446591AA3B2C1
:10910000B1FBFEF00EFB101443EA044408FB00F828
:10911000A04507D92C1900F1FF3302D2A04500F277
:10912000B6801846A4EB080440EA0C409FE7C7F15C
:10913000200CBB4022FA0CFE4EEA030E01FA07F4A3
:1091400020FA0CF521FA0CF34FEA1E482543B3FB35
:10915000F8F92C0C08FB19331FFA8EFA44EA034382
:1091600009FB0AF49C4202FA07F200FA07F10BD954
:109170001EEB030309F1FF3080F087809C4240F230
:109180008480A9F1020973441B1BADB2B3FBF8F054
:1091900008FB103345EA034400FB0AFAA24508D94C
:1091A0001EEB040400F1FF336BD2A24569D90238EB
:1091B000744440EA0940A0FB0289A4EB0A044C4530
:1091C000C2464B4654D351D0002E69D0B1EB0A05AC
:1091D00064EB030404FA0CFCFD40FC404CEA05057A
:1091E000C6E90054002747E7C2F1200320FA03F73D
:1091F000954001FA02F021FA03F34FEA154E384385
:10920000010CB3FBFEF71FFA85F80EFB173341EA9A
:10921000034107FB08F38B4204FA02F407D96918EB
:1092200007F1FF3C2FD28B422DD9023F2944CB1AA4
:1092300081B2B3FBFEF00EFB103341EA034100FBA9
:1092400008F38B4207D9691800F1FF3C17D28B4213
:1092500015D902382944C91A40EA07473BE737467F
:10926000304609E70746E7E61846FBE64145ABD23C
:10927000B8EB020A69EB0E0201381346A4E7604618
:10928000E9E7184695E76746D1E781467CE702386B
:109290002C4447E7ACF1020C2B442FE7384608E793
:1092A0003746E9E6704700BFF8B500BFF8BC08BC18
:1092B0009E467047F8B500BFF8BC08BC9E46704794
:1092C0000100060000000000841900204563020030
:1092D0000338FDD8704700006C9302006C930200C5
:1092E000040000000000010101000000111213142D
:1092F0000338FDD8704700007866000000000000C9
:1093000000300040000000000100000000000000EC
:109310000338FDD870470000B81B0020010000078B
:109320006C9302006C93020008000000749302002A
:1093300084930200080000006C9302007493020002
:10934000080000006C9302006C930200080000000B
:10935000649302006C9302000800000000190020D2
:049360000000000009
:089364009971020000000000F5
:08936C00C171020000000000C5
:109374009D8D020000000000C18E0200000000006C
:08938400BCCEFF7F01000000D8
:10938C0000100140110004000090D003941B002039
:10939C001F0000000000000000000000FF000000A3
:1093AC0002151331DDEE130629068283280700010E
:1093BC000001C300000000000000000000000000DD
:1093CC000000000000000000000000000000000091
:1093DC000000000000000000000000000000000081
:1093EC000000000000000000000000000000000071
:1093FC000000000000000000000000000000000061
:10940C000000000000000000000000000000000050
:10941C000000000000000000256202000162020052
:04000003200062B5C2
:00000001FF
