:020000022000DC
:1030000000000120DD790200057A0200077A020043
:10301000097A02000B7A02000D7A0200000000001B
:103020000000000000000000000000000F7A020015
:10303000117A020000000000137A0200157A0200E3
:1030400099530200177A0200915B02006167020047
:10305000177A0200177A02006D540200177A0200F4
:10306000177A0200177A0200177A0200177A020014
:10307000177A0200177A0200177A0200177A020004
:10308000177A0200E53F0200177A0200177A020061
:1030900085400200177A0200A97E0200177A02001A
:1030A000177A0200177A0200177A0200177A0200D4
:1030B000177A0200177A02000000000000000000EA
:1030C000177A0200177A0200177A0200177A0200B4
:1030D000177A0200177A0200177A02000000000037
:1030E00000000000000000000000000000000000E0
:1030F00000000000000000000000000000000000D0
:1031000000000000000000000000000000000000BF
:1031100000000000000000000000000000000000AF
:10312000000000000000000000000000000000009F
:10313000000000000000000000000000000000008F
:10314000000000000000000000000000000000007F
:10315000000000000000000000000000000000006F
:10316000000000000000000000000000000000005F
:10317000000000000000000000000000000000004F
:10318000000000000000000000000000000000003F
:10319000000000000000000000000000000000002F
:1031A000000000000000000000000000000000001F
:1031B000000000000000000000000000000000000F
:1031C00000000000000000000000000000000000FF
:1031D00000000000000000000000000000000000EF
:1031E00000000000000000000000000000000000DF
:1031F00000000000000000000000000000000000CF
:1032000010B5054C237833B9044B13B10448AFF320
:1032100000800123237010BD38180020000000003A
:10322000248B0200084B10B51BB108480849AFF3C6
:1032300000800848036803B910BD074B002BFBD082
:10324000BDE81040184700BF00000000248B0200BA
:103250003C180020BC17002000000000154B002B7C
:1032600008BF134B9D46A3F5803A00218B460F46BD
:103270001348144A121A04F0B2FF0F4B002B00D06F
:1032800098470E4B002B00D09847002000210400E7
:103290000D000D48002802D00C48AFF3008004F068
:1032A0006DFF2000290003F0C1FD04F053FF00BFB3
:1032B00000000800000001200000000000000000E5
:1032C00038180020AC1F00200000000000000000A3
:1032D000F0B595B0002415460F4608461E4601F08D
:1032E00017FF3846234605A9082208951A9D099616
:1032F0000D950A948DF82C400C9401F067FF9DF811
:103300001430079806998DF8104003F00302012A43
:103310000290ADF80C102CD0022A04D0384601F0EF
:1033200007FF15B0F0BDBDF81650C3F3C202C3F3DA
:103330008003C5F389158DF80E208DF80F3008260F
:10334000082D2C4628BF08243346224638460EA9AD
:1033500001F03CFF2D1B21460EA802AA08AB264413
:1033600000F06AFD002DEBD1384601F0E1FE15B00A
:10337000F0BDBDF81460059DC6F38316C3F3C20EFD
:10338000B2000EA9C3F3800438460823C5F395257F
:103390008DF80EE08DF80F4001F018FF08AB009398
:1033A000284632460EA902AB00F0AEFCB6E700BFDD
:1033B000014B01221A70704754180020704700BF5B
:1033C00030B5114D114889B002F0A2FA0FCD6C460C
:1033D0000FC495E80F00062584E80F004FF0FF3377
:1033E0004FF0EB740948009569460022019302935F
:1033F0000393069402F09EF908B100F0AFFD044B70
:1034000000221A7009B030BD1C8202002017002073
:103410005518002000B583B0044B0093044A4023A4
:10342000FFF756FF03B05DF804FB00BF3534020020
:103430005818002010B5094C09480023D2B2237057
:1034400002F0ECFA30B9074B1B7813B12378002B4C
:10345000FCD010BD00F082FDF5E700BF541800203D
:10346000201700205518002030B5104D0FCD89B021
:103470006C460FC495E80F00062584E80F004FF056
:10348000FF334FF0EB740A480A4A009569460193EE
:1034900002930393069402F04DF908B100F05EFD2B
:1034A000054B01221A7009B030BD00BF1C8202001A
:1034B00020170020B13302005518002010B5054C2C
:1034C000FFF7D2FF2046042100F0DEFB01236372E8
:1034D00010BD00BF2817002008B5104B104800226F
:1034E000FF21C3F8182499601A605A60C3F81424A5
:1034F00083F81C2401F0C4FD70B90A4B0A4A9A1AD9
:10350000D20807D0094903460B520133934200F118
:103510000C00F9D1002008BD08BD00BF981800209C
:103520004C820200808B0200308B0200C01700200A
:1035300021B9124A02EBC0000068704730B410494C
:103540000E4D491BC9080ED00E4B5A88824218BF37
:10355000002205D10FE0DC89844203F10C0305D081
:1035600001328A42F7D1002030BC704705EBC2001F
:10357000006830BC70472846FAE700BF308B020075
:10358000808B0200C0170020094B013903EBC000FB
:1035900003290BD8DFE801F0020806040220704777
:1035A00040797047007970470420704700207047C9
:1035B000308B02002DE9F04F874C626823689A42F5
:1035C00085B042D00023C4F81834BFF34F8F606831
:1035D000A56805EA0003023304EB8302111D12798A
:1035E00012F0030F024610D10B884988C3F38913E8
:1035F00003EB911301331A4402EA0503023304EB8F
:103600008306311D3679B607EED004EB8303511CD7
:103610005B680193294004EB810103F00303C9684F
:103620000291022B02F102086B4F12D0012B6DD0D8
:10363000032B06D02368181A18BF012005B0BDE877
:10364000F08FD7F81834002BF4D1002005B0BDE876
:10365000F08FBDF806306148C3F38919B9F1500FF6
:10366000CA46A8BF4FF0500A6AF38F130AF1080147
:10367000ADF8063001F006FD0646002800F0878010
:1036800025EA080B0BF1010B01F042FD4FEA8B0B11
:10369000304601A90822002301F070FDDA4540F20E
:1036A0008E80BBF1000F74D107F10C0152463046F9
:1036B000082301F063FD09F1030708EB9707D4F82D
:1036C0001834DFF81481D4F81054002B59D14DB1BF
:1036D0006B7A2846314613B12B681B6898476D6892
:1036E000002DF5D1304601F023FD04A8002300F899
:1036F0000D3D01F005F9D4F81834374A03B9576085
:103700009DF8030001F024F9606893E7BDF80430E8
:103710003248C3F38312062A28BF0622911C62F3A3
:1037200089138900ADF8043001F0ACFC064670B393
:1037300001F0EEFC0023304601A9082201F01EFD35
:10374000BDF8043013F4707F44D04FF0000A4FF0FE
:10375000080908EA050104EB81014B460C313046AB
:10376000042201F00BFDBDF804300AF1010AC3F395
:10377000831308F10107534509F10409B846E8D855
:103780009DE7304601F0D4FCD8F8040052E7786891
:1037900050E708EA050107EB8101CBEB0A0530464B
:1037A0005A460C31EDB2082301F0E8FC30462A46B7
:1037B00007F10C010BF1080301F0E0FC7BE708EADC
:1037C000050107EB81010C3152463046082301F018
:1037D000D5FC70E7474672E7981800204C8202003B
:1037E0002DE9F04F89B008AB00265B4C03F80D6D56
:1037F00002901846A3680391019301F081F8A5682F
:103800006168D4F800806B180133C8EB0303032B05
:103810005ED805F10109B646C8EB090904F5836CC9
:1038200004F214470126A2465CE8003F43EA060280
:103830004CE8002090F0000FF6D157E8003F43EA33
:10384000060247E8002090F0000FF6D101EA0503D8
:10385000023304EB8302101D127912F0030F0A46A3
:1038600013D103884088C3F3891303EB901301330A
:103870001A4402EA0503023304EB830B0BF1040044
:103880009BF804B01BF0030FEBD004EB8303023270
:103890005B68059303F00303012B57D0022B06D17D
:1038A000BDF81630C3F38913033302EB930257E8D4
:1038B000003F03EA0E0047E8000B9BF0000FF6D133
:1038C00013B1CAF80420114609EB0103032BABD94D
:1038D00005EA0803023304EB83039DF813001A7909
:1038E00042F003021A7123680233236001F030F8BA
:1038F000019B029D08F101021A4008EA030304EB50
:103900008202023304EB8303290CD1601A79C5F3D8
:10391000001161F3820265F3C5021A719A886FF390
:1039200089129A805A68039961F39F2211460120F7
:1039300060F301015A60197194F81C341BB1FFF750
:1039400039FE0028FBD109B0BDE8F08FBDF8143076
:10395000C3F383131A44AAE7981800202DE9F04F07
:1039600089B008AB00265F4C03F80D6D0190184636
:10397000A36802910093039200F0C2FFA5686168FA
:10398000D4F800806B180133C8EB0303042B5ED816
:1039900005F10109B646C8EB090904F5836C04F288
:1039A00014470126A2465CE8003F43EA06024CE8C1
:1039B000002090F0000FF6D157E8003F43EA0602DE
:1039C00047E8002090F0000FF6D101EA050302332A
:1039D00004EB8302101D127912F0030F0A4613D173
:1039E00003884088C3F3891303EB901301331A440F
:1039F00002EA0503023304EB830B0BF104009BF88E
:103A000004B01BF0030FEBD004EB830302325B68BE
:103A1000059303F00303012B5ED0022B06D1BDF802
:103A20001630C3F38913033302EB930257E8003FC8
:103A300003EA0E0047E8000B9BF0000FF6D113B12C
:103A4000CAF80420114609EB0103042BABD905EA9F
:103A50000803023304EB83039DF813001A7942F044
:103A600003021A7123680333236000F071FF009B87
:103A7000019D039E08F1020108F1010219401A405C
:103A800008EA030304EB810104EB8202023304EB36
:103A90008303280CCE60D0601A79C5F3001161F35E
:103AA000820265F3C5021A719A88012060F38912B7
:103AB0009A805A68029961F39F22114660F30101CE
:103AC0005A60197194F81C341BB1FFF773FD00287C
:103AD000FBD109B0BDE8F08FBDF81430C3F38313F8
:103AE0001A44A3E7981800202DE9F04F8BB00AADD7
:103AF0000026644C05F80D6D029005932846A368D6
:103B000003910193049200F0FBFEA5686168D4F86C
:103B100000806B180133C8EB0303052B5ED805F159
:103B20000109B646C8EB090904F5836C04F2144791
:103B30000126A2465CE8003F43EA06024CE800206A
:103B400090F0000FF6D157E8003F43EA060247E83D
:103B5000002090F0000FF6D101EA0503023304EBD8
:103B60008302101D127912F0030F0A4613D1038845
:103B70004088C3F3891303EB901301331A4402EA1C
:103B80000503023304EB830B0BF104009BF804B034
:103B90001BF0030FEBD004EB830302325B68079347
:103BA00003F00303012B66D0022B06D1BDF81E30B3
:103BB000C3F38913033302EB930257E8003F03EA90
:103BC0000E0047E8000B9BF0000FF6D113B1CAF8C6
:103BD0000420114609EB0103052BABD905EA0803C4
:103BE000023304EB83039DF81B001A7942F00302B1
:103BF0001A7123680433236000F0AAFE019B029E21
:103C0000049F08F10200184008F1030108F10102C5
:103C100019401A4004EB800008EA030304EB810119
:103C200004EB82020233C76004EB83030598C8608B
:103C3000350CD5601A79C6F3001161F3820266F380
:103C4000C5021A719A88022161F389129A805A6812
:103C5000039961F39F221146012060F301015A602C
:103C6000197194F81C341BB1FFF7A4FC0028FBD198
:103C70000BB0BDE8F08FBDF81C30C3F383131A44BA
:103C80009BE700BF9818002030B4144DD5F81044BD
:103C9000002154B1237A8B4214D0234602E01A7AD1
:103CA0008A420FD05B68002BF9D10172D5F810342D
:103CB0000A4A7BB15B684360D2F81034586008460A
:103CC00030BC704701310A29E3D14FF0FF3108467B
:103CD00030BC7047C2F810044360F0E79818002029
:103CE00038B5084BD3F81044012583F81C543CB177
:103CF0002368657220465B6898476468002CF7D19A
:103D000038BD00BF981800202DE9F04784B01D464B
:103D10000C9C002394F80C802373EB7981460E46AB
:103D200017460BB3062F0FD8DFE807F0363B4148A4
:103D300004515E00B168F06896E80C0000910190B3
:103D40004946204600F088FEEB792BB92B7AEBB977
:103D50002046334900F080FE204600F071FE84F8D2
:103D60000C8004B0BDE8F0872B7A002B4BD1AA79E8
:103D70002C4BA88853F822A00021FFF7D9FB52460C
:103D800003462949204600F067FECBE72046274935
:103D9000274A00F061FEDBE74946204600F05CFE62
:103DA000D2E749463268204600F056FECCE7494645
:103DB000204696E80C0000F04FFEC5E7B16896E893
:103DC0000C0020460091494600F046FEBCE7B16871
:103DD0003069F76896E80C00009102904946019717
:103DE000204600F039FEAFE796E80C00B168F068B5
:103DF00037697669039600910190494602972046FB
:103E000000F02AFEA0E7A979A888FFF7BDFB094BBF
:103E1000064953F82020204600F01EFEA7E700BF09
:103E2000B0820200608202009C820200988202003E
:103E3000A882020074820200082951D82DE9F047B7
:103E40001D46002395F80C902B73D37990460746B6
:103E50000E46002B45D0002405E03A5D013400F009
:103E6000FBFD082C0AD0A64228463049F5D8284642
:103E70002F49013400F0F0FD082CF4D128462D49DB
:103E8000DFF8D4A000F0E8FD00240DE03A5DDAF898
:103E90000030134401345B7813F0970F08BF2E22D3
:103EA00000F0DAFD082C0AD0A64228462249EDD8B7
:103EB00028462249013400F0CFFD082CF4D198F8AF
:103EC000073013B998F80830F3B928461C4900F0B8
:103ED000C3FD284600F0B4FD85F80C90BDE8F087DE
:103EE0007047137AB3B998F80620164BB8F8040057
:103EF00053F822400021FFF71BFB224603461249DC
:103F0000284600F0A9FDA6E728461049104A00F00F
:103F1000A3FDDAE791799088FFF736FB0D4B0B494B
:103F200053F82020284600F097FDDCE7B482020019
:103F3000BC820200C0820200C4820200A48202008D
:103F4000B0820200608202009C820200988202001D
:103F5000A8820200748202005017002000B585B0CC
:103F600000230390194644F2010001AAADF8043081
:103F7000029300F003F805B05DF804FB10B5FFF7FD
:103F8000AFFEFFF717FB0028FBD1104C104920882B
:103F9000000440F00100FFF723FC0E4B1B68DB0719
:103FA00000D5FFDE20880C49000440F00200FFF736
:103FB00017FCBFF34F8F0949094BCA6802F4E0624E
:103FC0001343CB60BFF34F8F00BFFDE7C017002046
:103FD00028830200F0ED00E03483020000ED00E0F1
:103FE0000400FA05F8B5204A204B0025C2F84051DC
:103FF000C2F84451C2F84851C2F84C51C2F80051BD
:10400000C2F804511B6813B31949D2F804250C688F
:10401000141B1A6824F07F44A2422F4609D8197C49
:10402000DE69A41A154499B91EB133461A68A24232
:10403000F5D9104B10491A780B789A420DD00F49D8
:104040000F4A41F823504FF48013C2F80031F8BDF5
:104050001F745A6998699047E6E7531CDBB2022B3C
:1040600008BF00230B70EAE7001001408C1D002000
:10407000881D0020901D0020911D0020A01E002002
:1040800000E100E02DE9F04F7D4A7E491378097880
:104090007D48994287B0066800F0E8810133DBB2C1
:1040A000022B08BF002379491370794A0291084610
:1040B00052F82310036874488A19002522F07F42C1
:1040C0000260AE462846A3B11A688A4200F2D68141
:1040D000DC68C3F800E0891A1044DA6934B1871942
:1040E00027F07F47DD619C605F601D461346002B13
:1040F000EAD1029A04931360049C01230593654B53
:10410000DFF894811B780193029BDFF890C11F6850
:104110005D4BBB46D3F800A02F4600230093C14659
:104120001E464FF0010E37B37A68B9683D46FF6905
:10413000CAEB020323F07F4363453CD80B442B605A
:104140006E60AE6085F810E0EE61002C67D02168EB
:104150008B4242D9204603E01168994244D210466E
:10416000C2695B1A002AF7D12B60EA612346C56158
:104170001C46002FD8D198F8003098F801209A42B8
:1041800000F08E805A1C03EB430308EBC30399F83D
:1041900002109D68D2B2914289F800201A7908BFB6
:1041A00089F80070022A48D0032A3CD0012A22D084
:1041B00023461C46DDE7C2EB0A0222F07F428A4218
:1041C00002D28B1A2B60BBE72E606E60AE6085F862
:1041D00010E0EE611CB321680023CB1A23602B464C
:1041E000EC61AB461C46C4E7C91A11602B60EA615A
:1041F0002346C561BCE72A7C0392002AD8D1DA683D
:104200006A601969A9605869E86010339B68AB61FE
:10421000019B002B8CD0039B6B601A4688E72B46D2
:10422000AB461C46A5E70CB9C2E71C46E3692674F9
:10423000002BFAD19B461C469BE754B1A54200F0E7
:104240000881234602E0954207D01346DA69002A26
:10425000F9D123462E741C468BE7AB4200F0FA805E
:10426000E9692868D9610029F3D023460A68024425
:104270000A60009A2E749C4218BF01220092EAE75D
:10428000901D0020911D0020881D00208C1D002005
:10429000A01E0020921D0020941D0020FEFF7F0024
:1042A000029B9DF80420C3F800B0764BC3F800A031
:1042B000754B1A70009B1BB9049BA34200F0D08180
:1042C000002C00F03C81714D6E4BD5F804051B6845
:1042D0006F4ED4F800C03178C21A22F07F42033208
:1042E000002952D16B4FDFF8B091DFF8B0814FF465
:1042F00080314FF4003E0124C5F84413C5F804137F
:10430000C7F880E1C7F800E02C602F21D9F80050F1
:1043100000BF00BF00BF00BF00BF00BF00BF00BFA5
:1043200045452FD000BF00BF00BF00BF00BF00BF8A
:1043300000BF00BF00BF00BF00BF00BF00BF00BF85
:1043400000BF00BF00BF00BF00BF00BF00BF00BF75
:1043500000BF00BF00BF00BF00BF00BF00BF00BF65
:1043600000BF00BF00BF00BF00BF00BF00BF00BF55
:1043700000BF00BF00BF00BF00BF00BF00BF00BF45
:1043800000BF00BF0139C3D1347062452CBF9A18F9
:1043900003EB0C023D4922F07F43C1F84035D1F8D0
:1043A0000425121A1B1A22F07F4223F07F430332A6
:1043B0009A4248D9D1F80435374AC1F840351268D5
:1043C00036492F2300BF00BF00BF00BF00BF00BFA2
:1043D00000BF00BF8A422FD000BF00BF00BF00BF98
:1043E00000BF00BF00BF00BF00BF00BF00BF00BFD5
:1043F00000BF00BF00BF00BF00BF00BF00BF00BFC5
:1044000000BF00BF00BF00BF00BF00BF00BF00BFB4
:1044100000BF00BF00BF00BF00BF00BF00BF00BFA4
:1044200000BF00BF00BF00BF00BF00BF00BF00BF94
:1044300000BF00BF00BF00BF013BC3D1154B4FF40D
:104440000032C3F80021104A0023137007B0BDE802
:10445000F08F2246D4F81CB0BBF1000F22D0D169F6
:1044600010685B4600297FF401AF02E70C4B029312
:104470001B680493002505951C4640E6521A1A60F5
:1044800037E600BF881D0020921D0020001001406B
:10449000A81E002000E100E04C1700200024F400DA
:1044A0008C1D00207549764BC1F808E075492F2016
:1044B000096800BF00BF00BF00BF00BF00BF00BF52
:1044C00000BF99422FD000BF00BF00BF00BF00BF98
:1044D00000BF00BF00BF00BF00BF00BF00BF00BFE4
:1044E00000BF00BF00BF00BF00BF00BF00BF00BFD4
:1044F00000BF00BF00BF00BF00BF00BF00BF00BFC4
:1045000000BF00BF00BF00BF00BF00BF00BF00BFB3
:1045100000BF00BF00BF00BF00BF00BF00BF00BFA3
:1045200000BF00BF00BF0138C3D1D16910680029A6
:1045300000F09B800122DA465B46019296E64F4AE4
:10454000514B504E4E484FF480314FF40037012507
:10455000C3F88070C2F848132F23C2F808135560BF
:1045600031681E4600BF00BF00BF00BF00BF00BFD4
:1045700000BF00BF81422FD000BF00BF00BF00BFFF
:1045800000BF00BF00BF00BF00BF00BF00BF00BF33
:1045900000BF00BF00BF00BF00BF00BF00BF00BF23
:1045A00000BF00BF00BF00BF00BF00BF00BF00BF13
:1045B00000BF00BF00BF00BF00BF00BF00BF00BF03
:1045C00000BF00BF00BF00BF00BF00BF00BF00BFF3
:1045D00000BF00BF00BF00BF013EC3D195602B4AA2
:1045E000146000BF00BF00BF00BF00BF00BF00BF1E
:1045F00000BF81422FD000BF00BF00BF00BF00BF7F
:1046000000BF00BF00BF00BF00BF00BF00BF00BFB2
:1046100000BF00BF00BF00BF00BF00BF00BF00BFA2
:1046200000BF00BF00BF00BF00BF00BF00BF00BF92
:1046300000BF00BF00BF00BF00BF00BF00BF00BF82
:1046400000BF00BF00BF00BF00BF00BF00BF00BF72
:1046500000BF00BF00BF013BC3D10D4B1C70F2E691
:10466000059B002B3FF4EFAE2AE601231A46019387
:104670008A468B460B4600922E74ECE500100140F2
:104680000024F4004C17002000E100E0881D002009
:10469000A81E00202DE9F041594B5A4A5A4D5B4E55
:1046A0004FF480344FF400310120C2F88010C3F879
:1046B00048432F21C3F8084358602D680C4600BFBB
:1046C00000BF00BF00BF00BF00BF00BF00BFB542BA
:1046D0002FD000BF00BF00BF00BF00BF00BF00BFA2
:1046E00000BF00BF00BF00BF00BF00BF00BF00BFD2
:1046F00000BF00BF00BF00BF00BF00BF00BF00BFC2
:1047000000BF00BF00BF00BF00BF00BF00BF00BFB1
:1047100000BF00BF00BF00BF00BF00BF00BF00BFA1
:1047200000BF00BF00BF00BF00BF00BF00BF00BF91
:1047300000BF013CC3D1364C98600020206000BF10
:1047400000BF00BF00BF00BF00BF00BF00BFB54239
:104750002FD000BF00BF00BF00BF00BF00BF00BF21
:1047600000BF00BF00BF00BF00BF00BF00BF00BF51
:1047700000BF00BF00BF00BF00BF00BF00BF00BF41
:1047800000BF00BF00BF00BF00BF00BF00BF00BF31
:1047900000BF00BF00BF00BF00BF00BF00BF00BF21
:1047A00000BF00BF00BF00BF00BF00BF00BF00BF11
:1047B00000BF0139C3D1174D1749DFF86080DFF81A
:1047C00060C0DFF860E028704FF48016E0250B270A
:1047D000C8F800008CF800008EF8000008704870DF
:1047E0008F70C2F8806182F814531660C3F8080510
:1047F00082F81153D3F804352360BDE8F08100BF7F
:104800000010014000E100E04C1700200024F400FB
:10481000881D0020A81E0020941D00208C1D002053
:10482000901D0020911D0020074B9B780BB908209C
:1048300070473AB130B10368187C0028F7D1597439
:104840005A61704707207047941D00202DE9F043FE
:10485000284CA37883B01BB9082003B0BDE8F083CF
:104860000028F9D0042903D8072003B0BDE8F0835D
:104870004369002BF0D0064602A8737C0025012B6B
:1048800000F8015D0CBF8946A94690460F4600F02E
:1048900037F86378A07821785A1CD2B2904208BFCA
:1048A0002A4691421FD003EB430304EBC30319468E
:1048B0004FF0010E41F8086F0F4883F804E0D0F87C
:1048C00004654E608F609DF80700C3F81490C3F82C
:1048D0001880627000F03CF8084B4FF480122846B4
:1048E000C3F80021B9E79DF8070000F031F8042073
:1048F000B3E700BF941D00200010014000E100E07C
:10490000F0B4EFF3108472B60E4B9A68B2B90E4948
:1049100001259D60D1F880700C4D2E463D401D60F4
:10492000C1F88060D1F884505D604FF0FF33C1F86A
:104930008430027004B962B6F0BC70470123037082
:10494000F8E700BF981F002000E100E0FC06FFBD73
:10495000094B9A6872B168B910B4EFF3108272B65D
:1049600006491C680C605C684C60986002B962B6CD
:104970005DF8044B704700BF981F002000E100E085
:10498000B8B130B4416882680468521AD2B2531E7A
:104990002160DBB242B101680A685C1E551C0D60E3
:1049A0001370E3B2FF2BF6D103680020187130BCFE
:1049B00070470E20704700BF70B582B002AB002573
:1049C00003F8015D04461846FFF79AFF2368616803
:1049D0001A688A4210D9511E19602168A3680E68AE
:1049E000087912F8015C228AE4689B1BDBB29842CA
:1049F00005FB024538BF0B719DF80700FFF7A8FFC4
:104A0000284602B070BD00BF30B583B002AB0022B3
:104A100003F8012D054618460C46FFF771FF2A687A
:104A20001368591C1160E9682A8A641AB4FBF2F40D
:104A30001C709DF80700FFF78BFF03B030BD00BF6F
:104A4000826802B9704710B504464369216800695D
:104A500098470023A36010BD0EB400B582B003993F
:104A600029B102AA04AB42F8043D00F089F802B073
:104A70005DF804EB03B070472DE9F84F1746B942D3
:104A80008A4606461D46DDF828B00B9A73D30B46BE
:104A90004FF00108B3FBF7F39F4208F10108F9D981
:104AA000A84538BFA84612F0010902D1BBF1000F9A
:104AB00041D1B168012402E0013D07FB04F4012D5E
:104AC000FAD8BAFBF4F39F42F7D92C4D02E0B16853
:104AD000BAFBF4F34A1CB2603268E85C5054B06828
:104AE0007268904204FB13AA02D33046FFF7A8FF76
:104AF000B4FBF7F4002CEAD1B9F1000F15D0BBF1EB
:104B0000000F12D0C34510D92024B3683268591C55
:104B1000B160D454B26873689A420BF1FF3B06D27D
:104B2000BBF1000F01D0C345EFD8BDE8F88F304688
:104B3000FFF786FFF4E7930718D42024C345B8D9BC
:104B4000B16833684A1CB2605C54B16873689942BA
:104B50000BF1FF3B05D2BBF1000FABD0C345F0D842
:104B6000A8E73046FFF76CFFB168F4E7002D14BFEB
:104B700020243024E2E74FF0010891E74C83020043
:104B80002DE9F04F0D4685B0002900F0B2800B787A
:104B9000DFF8E8A4064691460135002B00F0A58019
:104BA000252B40F0A28129464FF000080D4611F850
:104BB000013B2D2B00F09381302B00F093812B2BA8
:104BC00000F085812A2B00F09E81A3F13002092A92
:104BD00000F2BE816A1C002404EB840403EB44044D
:104BE0002A2BA4F13004154600F08E811378A3F12E
:104BF0003001092905F10102EED91A462E2A00F0EA
:104C00009081002701E015F8012F02F0FB03682BCB
:104C1000F9D0253A532A63D8DFE812F02701620061
:104C20006200620062006200620062006200620074
:104C30006200620062006200620062006200620064
:104C40006200620062006200620062006200620054
:104C50006200620062006200620062006200620044
:104C60006200620062006200620062006200620034
:104C70006200620062006200620062006200620024
:104C800062004A016200620062006200620062002B
:104C900062006200620062003601CE0062006200C3
:104CA00062006200CE006200620062006200620088
:104CB0006200A900620062006E006200540062009F
:104CC00062004A01D9F800301A1DC9F8002019689D
:104CD00000943B46CDF8048030460A22FFF7CCFE14
:104CE00001352B78002B7FF457AF337B002B40F03E
:104CF0006C8105B0BDE8F08FD9F800301A1DC9F8F5
:104D0000002018F0010F1F6840F02581002F00F0EF
:104D1000A581384603F06BFA8046444515D9A4B105
:104D20004FF0200B00E084B1B2683368511CB160D1
:104D300003F802B0B26873689A4204F1FF3402D3F8
:104D40003046FFF77DFE4445EDD8013F17F8013F9F
:104D5000002BC5D0B2683168501CB0608B54B2686B
:104D600073689A42F2D33046FFF76AFEEEE7D9F84D
:104D70000020131DC9F80030B36831681468581C4E
:104D80003022B060CA54B3687268934280F01881D0
:104D90003268581C7821B060D154B26873689A4266
:104DA00080F00A81082300220192214600933046B8
:104DB0001022FFF761FE93E7D9F800301A1DC9F8F9
:104DC0000020D3F800B08BEAEB73A3EBEB73092B55
:104DD0004FF0010108DD8AFB0302DB17C3EBA203DE
:104DE000092B01F10101F6DCB94238BF394634B173
:104DF000BBF1000F02DB18F0040F00D0013C18F0EB
:104E0000020F40F0D58018F0010F18D1002C00F0EF
:104E100006818C4213D94FF0200CB2683368501CC5
:104E2000B06003F802C0B26873689A4204F1FF34BC
:104E300080F0F780002C00F0F2808C42EDD8BBF1BE
:104E4000000FC0F20D8118F0040F40F0F48008F05C
:104E50000303022B00F0BF808DE8100159463B464A
:104E600030460A22FFF708FE3AE7B3683268581C5A
:104E70002521B060D154B26873689A42FFF430AF14
:104E80003046FFF7DDFD2BE7D9F80020131DC9F8E8
:104E90000030B36831681278581CB060CA54B268E8
:104EA00073689A42FFF41CAF3046FFF7C9FD17E75D
:104EB000D9F800301A1DC9F80020196800943B4643
:104EC000CDF8048030461022FFF7D6FD08E70D46E6
:104ED00011F8013B2D2B48F004087FF46DAE48F02B
:104EE000010863E648F0020860E6B2683168501CC9
:104EF000B0608B54B26873689A42FFF4F2AE3046E9
:104F0000FFF79EFDEDE60024D9F800301A1DC9F820
:104F100000206A781B682E2A1C4405F101057FF4E5
:104F200070AE6A78A2F13003092B05F101054FF04C
:104F300000073FF66AAE07EB870702EB470715F855
:104F4000012FA2F13003092BA7F13007F3D95CE65A
:104F50001A46002452E6B846C7EB080B18F8012B96
:104F60008AB1B1683368481CB0605A54B26873683B
:104F70009A42F1D33046FFF763FDC7EB080B18F8F0
:104F8000012B002AEDD15C457FF6AAAE2027B3683D
:104F90003268591CB160D754B26873689A4204F100
:104FA000FF3402D33046FFF74BFD5C45EFD897E660
:104FB000002F3FF444AF26E73046FFF741FDF1E60E
:104FC0003046FFF73DFDB368E2E6304605B0BDE888
:104FD000F04FFFF735BD002F7FF43EAF002C3BD0E4
:104FE0008C427FF639AF4FF0300CB2683368501CFA
:104FF000B06003F802C0B26873689A4204F1FF34EB
:1050000003D24CB38C42F0D826E73046CDF80CC022
:105010000291FFF715FDDDF80CC00299F1E70024BD
:105020000DE73046CDF80CC00291FFF709FDDDF821
:105030000CC00299FEE6B268531CB36033682B20A3
:105040009854B26873689A42FFF401AF30460291F7
:10505000FFF7F6FC0299FAE60024FDE6B8465CE6A6
:10506000B268531CB36033682D209854B2687368DB
:105070009A42CBF1000BFFF4EAAEE7E7676666669B
:10508000FFF77EBC2DE9F041B0F81080A8F10408CC
:105090004144CF1C0646FFF78FFCB7FBF8F70446E8
:1050A00078B3FFB200250123013FA0F80680066017
:1050B0000571437128D0804609E06379AF4203F15E
:1050C00001036371C8F80000066080461CD03046BA
:1050D000FFF772FC01350028EFD16679721E234676
:1050E00003D0013082421B68FBD81F684EB10025F7
:1050F00023682146013538461C46FFF785FCAE4241
:10510000F6D10020BDE8F0812046BDE8F08100BF67
:1051100010B40430012350E8002F02EB030140E8F3
:10512000001494F0000FF6D15DF8044B704700BFF7
:105130000146021DF8B5012052E8004FA4EB000320
:1051400042E8003595F0000FF6D113F0FF0300D0D0
:10515000F8BD4E79701E0A4603D00133984212689A
:10516000FBD81768002EF3D000240D6801343846B0
:10517000FFF74AFCA6422946F7D1F8BD2DE9F041D8
:105180000446181DE688B0FBF6F30F46154606FBED
:10519000130013B1013B2468FCD1321AAA4228BF84
:1051A0002A468DB14FF000082044AD1A07EB0801E4
:1051B0000430904403F008F8B5422A46246828BF1A
:1051C00032460020002DEFD1BDE8F0812DE9F041FD
:1051D000C688043304460F46B3FBF6F0154606FBBB
:1051E000103110B101382468FCD1721AAA4228BFCC
:1051F0002A468DB14FF000082144AD1A043107EB67
:105200000800904402F0E0FFB5422A46246828BF17
:1052100032460021002DEFD1BDE8F08101600B681E
:1052200043604A68934204BF00234360704700BF55
:10523000426842B101688B68134443604A689342F4
:1052400004BF002343607047184A30B402F1F005F0
:10525000AB1ADB1003EBD3735B1002EBC30152F804
:105260003330984228BF0C4605D311E052F8333052
:1052700098420CD221468B1ADB1003EBD3735B10E0
:10528000914202EBC304F1D8094830BC70470D4687
:10529000984204D904F10802AA42D9D3F4E760681D
:1052A000034B002808BF1846EFE700BF70860200D6
:1052B0006087020000B1704710B5064CA3683BB18F
:1052C0001A68A2605B6800209847A368002BF7D19A
:1052D00010BD00BFAC1E002010B5012882B02AD03E
:1052E00023D303281FD10020072100F097F802A83C
:1052F0000023264C00F8013DFFF702FBE368013B69
:10530000E360E3685BB9224B01221A604FF08042F0
:10531000D2F81834C3F30043002BF9D1A3709DF8E1
:105320000700FFF715FB02B010BD1A4B0122C3F8AE
:10533000802002B010BD02A80023144C00F8013DEB
:10534000FFF7DEFA237893B9124A6360A360236102
:10535000E360106810F0010014D002F09FFD20B946
:105360004FF080430122C3F8182501232370E3681E
:105370009DF8070001330122E360A270FFF7E8FA0D
:1053800002B010BD072100F049F8E6E7AC1E00208E
:105390000C00004000E100E010B51D4B1A6882B01F
:1053A000F2B91C4B1A680AB902B010BD00221A608B
:1053B0001B6801934FF080430222174C0199C3F8F8
:1053C000082323690122A270002BEDD01A68226104
:1053D0005B68012098472369002BF7D102B010BD0C
:1053E00000221A601B6800934FF0804301220A4C90
:1053F0000099C3F80823A3686270002BD1D01A6803
:10540000A2605B6800209847A368002BF7D1C8E72B
:105410000001004004010040AC1E0020002810B430
:1054200018DB00F1604303F561434901C9B283F819
:105430000013C3B24009800000F1604000F56140F4
:1054400003F01F0201239340C0F8803103605DF830
:10545000044B7047C3B2044A03F00F0449012244CD
:10546000C9B21176E6E700BFFCEC00E02DE9F04799
:1054700086B00026A24B01961A68012A00F03281FC
:10548000A04B1A68012A00F01F819F4B1A68012A5D
:1054900000F00C819D4B1A68012A00F0F9809C4BAA
:1054A0001A68012A00F0E6809A4B1A68012A00F077
:1054B000D380994B1A68012A00F0C080974B1A6874
:1054C000012A00F0AD80964B1A68012A00F09B80FB
:1054D00016F0FF0F1AD0934F01250024A30003F10B
:1054E0008043354203F5C0434FEA45050BD0D3F85E
:1054F000100557F82420D3F81015C0F30420C1F389
:10550000014102B190470134082CE7D1002E02DBA3
:1055100006B0BDE8F087844D00224FF0FF33A5F1BF
:10552000530702920393814C4FF00008012614F8B0
:10553000011FFF292BD0C9B221F0C00006AB4FEAF2
:10554000D00E03EB0E0201F0070312F80CCC06FAA2
:1055500003F31CEA030F1AD007EB000C89099CF92E
:1055600030C057F82CC0BCF1000F3CD003293CD010
:105570004FEA800E0EF1A04E12F8149CDEF80027C0
:1055800019EA030FC2F3014211D1032A36D0AC420B
:10559000CDD1B8F1000FBBD04FF0A043019AD3F8A2
:1055A00010359342B4D0029A01930392BBE7022ACA
:1055B000EDD1032904D0BCF1000FE8D0E047E6E7C5
:1055C0004FF44039DEF8002722F44032CEF80027AD
:1055D000DEF8003708F1010849EA03035FFA88F8AA
:1055E000CEF80037E7E70329D1D10DF1080A1AF800
:1055F0000E9049EA03090AF80E90B9E70329DAD1B7
:105600004FF40039DEE700221A601B6805934FF063
:10561000A043059AD3F81035019346F0004657E7AA
:10562000434AD2F8042312067FF54DAF00221A60D8
:105630001B680493049B46F0800644E73C4AD2F87A
:10564000042351067FF53AAF00221A601B680493C9
:10565000049B46F0400631E7354AD2F80423900611
:105660007FF527AF00221A601B680493049B46F065
:1056700020061EE72E4AD2F80423D4067FF514AF85
:1056800000221A601B680493049B46F010060BE787
:10569000274AD2F8042315077FF501AF00221A60CC
:1056A0001B680493049B46F00806F8E6204AD2F8EB
:1056B000042357077FF5EEAE00221A601B6804939F
:1056C000049B46F00406E5E6194AD2F80423920743
:1056D0007FF5DBAE00221A601B680493049B46F042
:1056E0000206D2E61249D1F8041311F0010105D0E7
:1056F0001E601B680493049B1646C1E60E46BFE677
:105700000061004004610040086100400C610040FD
:105710001061004014610040186100401C610040AD
:105720007C610040C01E0020131F00200F1F0020BE
:1057300000600040F0B50479724E6401331987B0FF
:10574000DD7E183315B1082007B0F0BD4D7F1D7107
:105750000D686B1C0BD04FF0A0470123AB40C7F87E
:1057600008350B6803F5E073032547F823504B68B1
:105770005F1C06D003F5E0734FF0A045002745F805
:105780002370037906EB43131B7F002B4DD0036876
:105790008D69C3F824550F7D4B7D05683B43C5F8E3
:1057A0006C3503680F684D68C3F80C75C3F8145561
:1057B0000B7D012B00F09B80331905465A600B6965
:1057C00050483351EAB12B79097F2A6800EB431026
:1057D000037F002B65D1C2F81C31D2F81C712A68F6
:1057E0000197019FC2F84431D2F844212B68464802
:1057F0000092009AC3F80403286840F30730FFF7CB
:105800000DFE2B792A6806EB43131B7F002B44D037
:105810000823C2F80035344400200121E075A0754A
:105820002076A076E17607B0F0BD05688F69C5F8EF
:10583000247591F814E04D7D07684EEA0505C7F818
:105840006C550568D1F800E04F68C5F81475C5F8C7
:105850000CE50D7D012DAFD18D686F1C05D005F5D0
:10586000E0754FF0A04747F82530CB685D1C0DD0A0
:1058700001254FF0A04705FA03F3C7F80835CB68B8
:1058800003F5E073032547F82350CB6805688F685C
:10589000C5F80835C5F810758EE70423C2F8003541
:1058A000B9E70023C2F81031D2F810712A680597C1
:1058B000059FC2F82031D2F820712A680497049F0E
:1058C000C2F82431D2F824712A680397039FC2F8E2
:1058D0004431D2F844212B6802920C48029AC3F852
:1058E0000403286840F30730FFF798FD89E78B68C9
:1058F0005D1CBAD003F5E0734FF0A045002745F8D2
:105900002370B2E7181F002080000200100302007D
:10591000F0B503793D4A04685B01D118097F00297D
:105920006DD00021C4F80015D118384C4968B1B1C8
:10593000017904EB4114217F002963D10168344CC3
:10594000C1F808430168334E090B4CB26409203496
:1059500001F01F01012505FA01F146F82410017933
:10596000076802EB4111D7F80C65097FD7F8145589
:105970004FF0FF3EA9B3D7F80815D7F81045C7F880
:105980000CE5C7F814E50068C0F808E5C0F810E5B4
:10599000771C06D006F5E0764FF0A040022740F8CD
:1059A00026706E1C06D005F5E0754FF0A04002266B
:1059B00040F82560651C06D004F5E0744FF0A04067
:1059C000022540F82450481C06D001F5E0714FF044
:1059D000A040022440F8214013440022DA765A60A5
:1059E000F0BDD7F80815D7F81045C7F814E5C7F883
:1059F0000CE50068C0F808E5C0F810E5C8E7C4F891
:105A0000001591E70168044C9AE700BF181F0020B9
:105A10008402020000E100E0100302002DE9F041E1
:105A200003795A4D5B01EC1886B0247F44B101F034
:105A30006044B4F1005F03D0102006B0BDE8F081EF
:105A40002B44DFF848E19F7D1FB1112006B0BDE86F
:105A5000F08199609A759F82067976010EEB0601B6
:105A60000B7F2BBB0268C2F81C31D2F81C410268C4
:105A700005940124059F94600468D1F808C0C4F817
:105A80001C31D4F81C310493049B8F8A8B8AD1F883
:105A900004E0BFB201331CF807709BB28B82C4F8DC
:105AA0001C75BEF1000F33D0002006B0BDE8F081B8
:105AB00003688A68C3F82071D3F820410368029410
:105AC000029CC3F85871D3F85841036801948C7D47
:105AD000019FC3F84425C3F84845036801229A6032
:105AE0004B68002BE0D1026801E0002B4CD1D2F8CA
:105AF0002011D2F85831003318BF01230029F4D007
:105B0000002B0CBF00200F20AB1900229A7594E7E0
:105B10008F7D8B8A01F110029BB2BB4226D20468B2
:105B200004E093889BB2B3F5807F05D0D4F81C3194
:105B300001F11002002BF4D001F1100293889BB206
:105B4000B3F5807FE5D0C4F81CE1D4F81C31039391
:105B5000039BB2F8048093881FFA88F801331CF87D
:105B600008809BB29380C4F81C85D2E793889BB2CF
:105B7000B3F5807F08D00268D2F81C31002BFBD02F
:105B80000123D3600020BFE70F20BDE7181F0020CE
:105B9000F0B59B4C237F8FB0002B75D1994AD2F87A
:105BA0000413890548D4974BD3F80423520704D52E
:105BB000D3F80821002A40F0CA80924BD3F81C2168
:105BC000C2B1A28AA07D8E4992B282424FF00002F9
:105BD000C3F81C2180F0A980D3F81C210692069AF4
:105BE000888A8A8A8D6880B20132285C92B28A8261
:105BF000C3F81C05834BD3F84421DAB10022C3F863
:105C00004421D3F84411A27E04910499002A40F063
:105C10008980E27D7A4B6AB10022587ED968DA75B4
:105C200001228DF830000B918DF828200AA893E806
:105C3000060090470FB0F0BDD2F824110029B2D071
:105C4000C2F82431D2F82411A37E07914FF40171D8
:105C50000798C2F808130BB901235360694A02235D
:105C60008DF82830D2F88034C2F88034E07DE268C4
:105C70000D9300238DF83000E375237621680B9295
:105C800063680AA8984798E75E4BD3F82421002A56
:105C900040F09380D3F8101161B1C3F81021D3F80C
:105CA000101103910399D3F83C15E07DC9B28842E5
:105CB00000F0AA80534BD3F84421B2B10022C3F8BC
:105CC0004421D3F84411E07D019101994C4960B120
:105CD000D3F83C35C8688DF830300123CA750B9075
:105CE0008DF828300AA80AC99847464BD3F82021D6
:105CF000002A9FD00022C3F82021D3F82011A07DD4
:105D0000009100993E49002894D0D3F84C058B6847
:105D10008DF830008A750B938DF828200AC90AA8DF
:105D2000984787E701221A6073E7D3F81C3105937F
:105D3000059B00283FF45EAF8B688DF830008A75B4
:105D40000B938DF828200AC90AA8984752E7E17DED
:105D50002B4A002970D00021C3F80811D3F808118C
:105D600008910899D068517ED3F818354354537E72
:105D7000D17D0133DBB25376627E214B8A427FF4C0
:105D80001CAF1A7E002A6DD19B7E13B91D4B0122D8
:105D90005A601C4AE06863684FF40171C2F8081346
:105DA000627E8DF83020002501220B902168E57578
:105DB0008DF828200AA89847FFE60022C3F824217E
:105DC000D3F82411029102218DF828100299D3F8FA
:105DD0008014C3F880140D91D3F83C15E368E27584
:105DE00022768DF830100B93216863680AA89847D3
:105DF000044BD3F84421002A3FF477AF5EE700BF9D
:105E0000181F002000200040217EF1B1D3F800725D
:105E1000E17527F02001E6682569C3F80012012327
:105E20008DF830008DF82830227621680B96E560D9
:105E300063680AA898473DE7C3F80811D3F808211A
:105E40000992099AD3F8183596E7E268E1750123BB
:105E50008DF830008DF828300B9294E80A000AA8DB
:105E6000984727E7DE685D7E1869DA750121002210
:105E7000D8601A765A768DF828100B968DF8305027
:105E800093E806000AA8904797E600BF00207047F5
:105E90002DE9F0438FB0002442F210750095C1F84F
:105EA0000441D1F804510195019DC1F82441D1F874
:105EB00024510295029DC1F81C41D1F81C51039553
:105EC000039DC1F80841D1F8085104950125049EAD
:105ED000C1F8004280F8264080F823400D628D60B2
:105EE00090F826409DF858609C4213D2145DC1F88A
:105EF0001C4590F826402C4480F8264004687CB16C
:105F000040F2862383608368C1F8043300200FB019
:105F1000BDE8F083002E36D0CD610468002CEFD1AF
:105F2000009D002D1FDD03F1FF3E01274FF0020C05
:105F300090F823504DBBD1F8248190F82690B8F109
:105F4000000F44D0C1F82451D1F824510A950A9D7C
:105F50004F6180F823704B4529D0009D013D00958D
:105F6000009D002DE4DC90F82330002B6ED1002042
:105F7000009B002BCBDC00220523C1F80025032069
:105F8000C1F80035C3E74D61B8E7C1F82441D1F845
:105F900024510D950D9DC1F81C41D1F81C510C9553
:105FA0000C9DC1F80841D1F808510B950B9DD1F813
:105FB0000451002DD1D00023C1F80431D1F80431AF
:105FC0000593059B90F82330002B3FD1CFE7D1F804
:105FD0001C51ADB1C1F81C81D1F81C510995099D26
:105FE000D1F8245145BB90F82650AB425ED9555D9F
:105FF000C1F81C5590F82650013580F82650AAE7C4
:10600000D1F80881B8F1000FA5D0C1F80851D1F836
:106010000881CDF81C80DDF81C80D1F82481B8F10E
:10602000000F2DD0C1F82451D1F824510695069DBA
:106030004F6180F823708EE7C1F82481D1F8245194
:106040000895089D4F6180F8237084E7D1F8C43427
:10605000C1F8C434002B8AD013F0010F18BF4FF4DD
:10606000024048F2012208BF032013F0020F18BFBC
:10607000104648F2022213F0040F18BF104677E7CB
:1060800090F82650AB427FF666AFD1F8188502F83B
:10609000058090F826500135EDB2754580F8265000
:1060A0000AD0AB423FF457AF0F6254E716B1012359
:1060B000CB6158E74F614EE7C1F800C2F4E700BF7B
:1060C0002DE9F0418EB0002442F210750095C1F820
:1060D0000441D1F804510195019DC1F82441D1F842
:1060E00024510295029DC1F81C41D1F81C51039521
:1060F000039DC1F80841D1F808510495012B80F89F
:10610000264080F82340049D0CBF02240124012571
:10611000C1F800420D620D6004684CB140F2862364
:1061200083608368C1F8043300200EB0BDE8F081BD
:10613000009E002E1EDD2E4603F1FF3E4FF0020CA6
:1061400090F8235035BBD1F8247190F82680002FA9
:1061500042D0C1F82451D1F824510A950A9D4E61CC
:1061600080F82360434527D0009D013D0095009DA8
:10617000002DE5DC90F82330002B67D10020009B38
:10618000002BD2DC00220523C1F800250320C1F832
:106190000035CAE7C1F82441D1F824510D950D9D71
:1061A000C1F81C41D1F81C510C950C9DC1F8084157
:1061B000D1F808510B950B9DD1F80451002DD3D087
:1061C0000023C1F80431D1F804310593059B90F800
:1061D0002330002B3AD1D1E7D1F81C51ADB1C1F831
:1061E0001C71D1F81C510995099DD1F824511DBB92
:1061F00090F82650AB4258D9555DC1F81C5590F81F
:106200002650013580F82650ACE7D1F80871002FF0
:10621000A8D0C1F80851D1F808710797079FD1F8A5
:1062200024716FB3C1F82451D1F824510695069D0D
:106230004E6180F8236095E7C1F82471D1F82451AC
:106240000895089D4E6180F823608BE7D1F8C4342F
:10625000C1F8C434002B91D013F0010F18BF4FF4D4
:10626000024048F2012208BF032013F0020F18BFBA
:10627000104648F2022213F0040F18BF10467EE7C2
:1062800090F82650AB427FF66DAFD1F81875575590
:1062900090F826500135EDB2754580F8265006D0AD
:1062A000AB423FF45FAF0E625CE74E615AE7C1F864
:1062B00000C2F8E72DE9F04F0579244EAF0007EB57
:1062C000050E4FEACE0E06EB0E0883B098F822407A
:1062D0001CB1082003B0BDE8F08F46F80E20C8F8C6
:1062E0000840C8F8043088F8254088F824408B7BA3
:1062F00088F827304B7B5BBB0B684FF0A04403F55D
:10630000E07340F20C6E44F823E04B6803F5E07351
:1063100044F823E091E810400368C3F80845C3F847
:106320000CE58C68C3F824452AB10068097B40F36A
:106330000730FFF773F83D4406EBC5050123002045
:1063400085F8223003B0BDE8F08F00BF381F002071
:106350000B68DFF8A092DFF8A0E24FF0A04C03F545
:10636000E07340F20C6A4CF823A04B6803F5E0732D
:106370004FF001084CF823A00B6808FA03F3CCF89F
:1063800008354B6808FA03F3CCF808350B6803F5B9
:10639000E07340F20D6B4CF823B04B6803F5E073EB
:1063A0004FF0040A4CF823B05346D9F8009000BFD0
:1063B00000BF00BF00BF00BF00BF00BF00BFF1456E
:1063C0002FD000BF00BF00BF00BF00BF00BF00BF95
:1063D00000BF00BF00BF00BF00BF00BF00BF00BFC5
:1063E00000BF00BF00BF00BF00BF00BF00BF00BFB5
:1063F00000BF00BF00BF00BF00BF00BF00BF00BFA5
:1064000000BF00BF00BF00BF00BF00BF00BF00BF94
:1064100000BF00BF00BF00BF00BF00BF00BF00BF84
:1064200000BF013BC3D1F3460195DCF81035D1F82C
:1064300004E023FA0EF3DB07554600F1D5800B6824
:1064400008FA03F3CCF80C3500BF00BF00BF00BF53
:1064500000BF00BF00BF00BFD9452FD000BF00BFA5
:1064600000BF00BF00BF00BF00BF00BF00BF00BF34
:1064700000BF00BF00BF00BF00BF00BF00BF00BF24
:1064800000BF00BF00BF00BF00BF00BF00BF00BF14
:1064900000BF00BF00BF00BF00BF00BF00BF00BF04
:1064A00000BF00BF00BF00BF00BF00BF00BF00BFF4
:1064B00000BF00BF00BF00BF00BF00BF013DC3D190
:1064C0000B6808FA03F3CCF80835534600BF00BF49
:1064D00000BF00BF00BF00BF00BF00BFD9452FD025
:1064E00000BF00BF00BF00BF00BF00BF00BF00BFB4
:1064F00000BF00BF00BF00BF00BF00BF00BF00BFA4
:1065000000BF00BF00BF00BF00BF00BF00BF00BF93
:1065100000BF00BF00BF00BF00BF00BF00BF00BF83
:1065200000BF00BF00BF00BF00BF00BF00BF00BF73
:1065300000BF00BF00BF00BF00BF00BF00BF00BF63
:10654000013BC3D10134092C7FF46FAF4B68019D2F
:10655000984601234FF0A04E03FA08F8DFF898C0E0
:10656000CEF80C85042400BF00BF00BF00BF00BFF1
:1065700000BF00BF00BFE1452FD000BF00BF00BF7C
:1065800000BF00BF00BF00BF00BF00BF00BF00BF13
:1065900000BF00BF00BF00BF00BF00BF00BF00BF03
:1065A00000BF00BF00BF00BF00BF00BF00BF00BFF3
:1065B00000BF00BF00BF00BF00BF00BF00BF00BFE3
:1065C00000BF00BF00BF00BF00BF00BF00BF00BFD3
:1065D00000BF00BF00BF00BF00BF013CC3D14C687B
:1065E000A340CEF8083587E6019DF046002CB0D1D7
:1065F00082E600BF4C1700200024F4000379064A0D
:10660000016803EB830302EBC3030220052283F836
:106610002200C1F800257047381F00202DE9F04FF7
:1066200087B000249DF840500394884696469C46C7
:1066300004940594CDB9A9460379214F066803EB6C
:106640008303DC0007EB040B4FF0FF330BF1200A50
:10665000C6F808339AF804305BB1DBF80830C6F8A6
:106660000433112007B0BDE8F08F01254FF0200959
:10667000E2E78DF80D808DF80EC0CDF810E006AB86
:1066800013E907000BF10C0383E8070001228AF8E5
:1066900004206346C6F88885584600957246314600
:1066A000CBF818908BF820C0CBF81CE08AF801508A
:1066B000FFF7EEFB3B59002BD4D18AF80430D1E729
:1066C000381F00202DE9F04F0479DFF8908006682C
:1066D00004EB8404E40008EB04054FF0FF3005F1FF
:1066E0002009C6F8080385B099F80470002007F067
:1066F000FF0C01900290039037B1AB68C6F80433E9
:10670000112005B0BDE8F08F012796468DF80630C0
:1067100002928DF804708DF8051004AA8A4612E9D9
:10672000070089F8047005F10C0787E8070085F871
:106730002030C6F888A5284631467246C5F818C0EC
:10674000C5F81CE089F801C0FFF7BAFC58F804301E
:10675000002BD6D189F80430D3E700BF381F0020C2
:10676000F0B5714B714A93F82310DE6993F820005D
:1067700093F8217091B099B9D2F8244193F826503A
:10678000002C4AD0C2F82411D2F82411089101211A
:10679000089C83F823105161A84214D011B0F0BDB9
:1067A0000021C2F82411D2F824010B900B98C2F8F2
:1067B0001C11D2F81C010A900A98C2F80811D2F8EC
:1067C00008210992099A594AD2F804110029E5D002
:1067D0000021C2F80411D2F804210392039A93F81D
:1067E00023205148002A30D1017B8A1E012A65D915
:1067F0004F4A07CA10AD05E9070000248DF8304064
:106800009A6949480021540783F82410C6D40368C4
:1068100041680CA8984711B0F0BDD2F81C1151B3D3
:10682000C2F81C41D2F81C1107910799D2F8241123
:10683000002957D0C2F82441D2F824110691012131
:10684000069C83F823105161A6E70C3007C810ACF2
:1068500004E907003549D1F8C424C1F8C4249107DC
:1068600003D501228DF83020CAE7550744BF022224
:106870008DF83020C4E7D2F80841002C8CD0C2F843
:106880000811D2F808410594059CD2F82441002C47
:1068900035D1A84280D9D2F81815715593F8261031
:1068A0000131C9B2441EA14283F8261032D0884279
:1068B0003FF472AF1D4A012111626DE7C46902699C
:1068C000944295D184694269C37BC261C4F3401488
:1068D000032980F8214080F820301FD01349FFF7AA
:1068E000EFFB5BE7A84203D801218FB1D16176E7C6
:1068F000715DC2F81C156A1C83F826204CE7C2F8AB
:106900002411D2F824110491049C012183F823104E
:10691000516141E70221C2F80012CBE7009403491C
:10692000FFF7B6FA3AE700BF381F002000300040FA
:10693000441F0020037813B9014B01221A707047DD
:10694000601F0020F0B585B0002103910B460E2793
:106950000D264FF0CC7502240848094A0097694675
:10696000019602958DF80C40FFF7A4FC08B1FDF7E5
:10697000F5FA0248FFF742FE05B0F0BD9487020029
:106980003569020030B50C4B0C4C1B880C4885B0A7
:106990000025ADF80C300095702103AA0223257064
:1069A000FFF73CFE20B92378002BFCD005B030BDAA
:1069B000FDF7D4FAF7E700BF90870200601F0020C0
:1069C0009487020008B50648064A70210623FFF79F
:1069D00079FE00B908BDBDE80840FDF7BFBA00BFA9
:1069E00094870200A41F00202DE9F047C84A1778B9
:1069F0005578D678147992F802E0FB43DBB24FEA7F
:106A0000430C5FFA8CFC13F0800F8CF0310318BF3D
:106A10009C465FFA8CFC4FEA4C03DBB21CF0800F03
:106A200083F0310C08BF9C465FFA8CFC4FEA4C03A4
:106A3000DBB21CF0800F83F0310C08BF9C465FFA7C
:106A40008CFC4FEA4C03DBB21CF0800F83F0310C5E
:106A500008BF9C465FFA8CFC4FEA4C03DBB21CF08B
:106A6000800F83F0310C08BF9C465FFA8CFC4FEA24
:106A70004C03DBB21CF0800F83F0310C08BF9C4646
:106A80005FFA8CFC4FEA4C03DBB21CF0800F83F002
:106A9000310C08BF9C465FFA8CFC4FEA4C03DBB21A
:106AA0001CF0800F83F0310C18BF6346DBB26B40E3
:106AB0004FEA430C5FFA8CFC13F0800F8CF031032B
:106AC00018BF9C465FFA8CFC4FEA4C03DBB21CF00B
:106AD000800F83F0310C08BF9C465FFA8CFC4FEAB4
:106AE0004C03DBB21CF0800F83F0310C08BF9C46D6
:106AF0005FFA8CFC4FEA4C03DBB21CF0800F83F092
:106B0000310C08BF9C465FFA8CFC4FEA4C03DBB2A9
:106B10001CF0800F83F0310C08BF9C465FFA8CFCA0
:106B20004FEA4C03DBB21CF0800F83F0310C08BF3E
:106B30009C465FFA8CFC4FEA4C036FEA06095FFA49
:106B400089F9DBB21CF0800F4FEA490883F0310C61
:106B50005FFA88F818BF634619F0800F88F0310C8F
:106B600008BFC4465FFA8CFC4FEA4C085FFA88F80D
:106B70001CF0800F88F0310C18BFE0465FFA88F8EF
:106B80004FEA480C5FFA8CF918F0800F89F0310C4D
:106B900008BFCC465FFA8CFC4FEA4C085FFA88F8D5
:106BA0001CF0800F88F0310C18BFE0465FFA88F8BF
:106BB0004FEA480C5FFA8CF918F0800F89F0310C1D
:106BC00008BFCC465FFA8CFC4FEA4C085FFA88F8A5
:106BD0001CF0800F88F0310C18BFE0465FFA88F88F
:106BE0004FEA480C5FFA8CF918F0800F89F0310CED
:106BF00008BFCC465FFA8CFC4FEA4C085FFA88F875
:106C00001CF0800F88F0310C18BFE0465FFA88F85E
:106C100088EA04084FEA480C5FFA8CFC18F0800FF1
:106C20008CF0310808BFE0465FFA88F84FEA480C5C
:106C30005FFA8CFC18F0800F8CF0310808BFE0463A
:106C40005FFA88F84FEA480C5FFA8CFC18F0800F66
:106C50008CF0310808BFE0465FFA88F84FEA480C2C
:106C60005FFA8CFC18F0800F8CF0310808BFE0460A
:106C70005FFA88F84FEA480C5FFA8CFC18F0800F36
:106C80008CF0310808BFE0465FFA88F84FEA480CFC
:106C90005FFA8CFC18F0800F8CF0310808BFE046DA
:106CA0005FFA88F84FEA480C5FFA8CFC18F0800F06
:106CB0008CF0310818BFC4465FFA8CFCDBB24FEA97
:106CC0004C095FFA89F94FEA43081CF0800F89F0FC
:106CD000310A5FFA88FC18BFD1468CF0310813F0F6
:106CE000800F18BFC4465FFA8CFCE6455FFA89F94D
:106CF00002D00020BDE8F08753794B45F9D105EB70
:106D00000725058004EB06240C800020BDE8F087F1
:106D1000A41F00203DDF70473EDF704773DF7047E0
:106D200077DF70477CDF7047014B01221A70704794
:106D3000941F0020F0B593B0FFF724FE384B39497B
:106D40001A6843F6982300BF00BF00BF00BF00BF12
:106D500000BF00BF00BF8A422FD000BF00BF00BFEE
:106D600000BF00BF00BF00BF00BF00BF00BF00BF2B
:106D700000BF00BF00BF00BF00BF00BF00BF00BF1B
:106D800000BF00BF00BF00BF00BF00BF00BF00BF0B
:106D900000BF00BF00BF00BF00BF00BF00BF00BFFB
:106DA00000BF00BF00BF00BF00BF00BF00BF00BFEB
:106DB00000BF00BF00BF00BF00BF013BC3D1FFF752
:106DC00001FE03A96846FFF70FFEBDF80050BDF8AD
:106DD0000C40154B02934FF0590C4FF0170E002149
:106DE0003C222F0A260A03A81F755D75DC749E7469
:106DF000ADF800C0ADF804E001F0F1F90023042281
:106E000003A81946CDF830D08DF80F208DF80C303E
:106E100000F0B4FB08B1FDF7A1F813B0F0BD00BF5E
:106E20004C1700200024F400341700202DE980487E
:106E3000012095B0FFF76EFF0020FCF74DFB08B175
:106E4000FDF78CF8FCF73AFBFDF724FC08B1FDF7E1
:106E500085F88748874A0121FDF7E6FC08B1FDF770
:106E60007DF80420FFF75CFF00F09AFF08B1FDF702
:106E700075F814AE002346F83C3D0120314601F080
:106E800055F808B1FDF76AF8304601F001F908B18C
:106E9000FDF764F89DF804307748784C012262F3DE
:106EA000030314AD62F3071305F84C3D01F09FF99D
:106EB000714982B22846FFF735FF59251723002173
:106EC0003C223046ADF80C30ADF80850049401F087
:106ED00086F90023042202AF194630468DF814309B
:106EE0008DF817200E9700F049FB08B1FDF736F832
:106EF000634D00211022284601F071F900234FF064
:106F0000030E4FF47A622846012185F800E06A8179
:106F10006B602B72AB81FFF701FF08B1FDF71EF824
:106F20000220FEF7B3FF08B1FDF718F855484FF4FB
:106F30007A610022FDF78AFC08B1FDF70FF8FFF730
:106F400001FD0120FFF7F6FE4F4B50491888504DC8
:106F5000DFF840B1DFF840A1000440F00300FCF787
:106F60003FFC43F698294FF0590803E0FCF722FB59
:106F7000002875D02B78002BF8D0FFF703FDDBF845
:106F800000204B4600BF00BF00BF00BF00BF00BFD6
:106F900000BF00BF52452FD000BF00BF00BF00BFE1
:106FA00000BF00BF00BF00BF00BF00BF00BF00BFE9
:106FB00000BF00BF00BF00BF00BF00BF00BF00BFD9
:106FC00000BF00BF00BF00BF00BF00BF00BF00BFC9
:106FD00000BF00BF00BF00BF00BF00BF00BF00BFB9
:106FE00000BF00BF00BF00BF00BF00BF00BF00BFA9
:106FF00000BF00BF00BF00BF013BC3D1FFF7E2FCF1
:1070000031463846FFF7F0FCBDF81410BDF80830E3
:10701000E1740A0A4FEA132C4FF0170E0021A274F4
:1070200030463C226375049484F814C0ADF808809F
:10703000ADF80CE001F0D3F80023042230461946E5
:107040000E978DF817208DF8143000F097FA08B1DC
:10705000FCF784FF00232B70FCF7ACFA002889D1E1
:10706000FFF75AFE00283FF47EAFFCF777FF7AE780
:10707000BC870200296D02009C87020034170020A3
:10708000841F0020641F0020C0170020A487020076
:10709000941F00204C1700200024F4006DDF70477F
:1070A00072DF704779DF70477DDF704764DF7047BC
:1070B000F0B50488012C83B007D0148804F1020EC7
:1070C0009E4505D90C2003B0F0BD072003B0F0BDEC
:1070D0000578012D04D1457802352544AB42F1D322
:1070E000023B0F461C1B02A9A4B2054621F8024D23
:1070F00007EB0E001646FFF7D7FF0028E3D12B78E9
:10710000022B17D0012B11D023460821FE2BD9D8F2
:107110003288581CB8543288013292B23280B95445
:1071200032880132134433800020CCE76B789C42D4
:10713000EBD2E9E7BDF806309C42E5D30921E5E74B
:107140002DE9F04F85B083460E9D00882C88019470
:10715000BDF83C9000284ED000278A461646984637
:107160003C4604E0BBF800300134A34226DDDBF8E6
:10717000043053F8240003900DF10B0103A8002202
:10718000FFF794FF18BB9DF80B30B342EAD10FB361
:107190002A8893194B4519DC424403A80DF10B01D1
:1071A0000127FFF783FF90B92B889DF80B2013442C
:1071B0002B80BBF800300134A342D8DCDFB12B8830
:1071C000019A013B9B1A9BB2FF2B12D90C2005B0F0
:1071D000BDE8F08F2B885A1C334402334B4592B2E2
:1071E000F4DC2A8008F802A02A88013292B22A80B0
:1071F000D2E708F80230002005B0BDE8F08F00BFEC
:107200002DE9F04700231788138090F82D3086B0C1
:10721000144605460E46002B40F0C880AA78002A86
:1072200040F0F080EA78002A2CD1696899B1DA1C24
:10723000BA42097822D80222F254238801339BB241
:107240000A222380F254238801339BB22380F15415
:107250002388013323802B89002B40F0F7802B8A71
:10726000002B40F00C812B8B002B40F021812B6AEE
:10727000002B5CD02288911DB94218D90C2006B091
:10728000BDE8F087D91CB942F8D80221F15423880F
:1072900001339BB201212380F15423880B449BB21C
:1072A0002380F25423880B449BB22380BDE71988C6
:1072B000052940F2C9806FF4486801EB080080B2EC
:1072C0004FF27D3E704540F2BF805888052840F25D
:1072D000BB806FF4486C84441FFA8CFCF44540F288
:1072E000B3804FF6FF7E714504D0704502D08142D5
:1072F00000F2AA800521B1542288013292B21221F3
:107300002280B1542288013292B222801988B1546D
:107310003244090A51702288023292B222805B887C
:10732000B35432441B0A53702388023323806B6AA0
:10733000002B2BD0998820880A1D0244BA429DD880
:107340008A1CFE2A9AD8033131542288013292B223
:10735000FF212280B1542288013292B22280198802
:10736000B1543244090A51702088023080B2208022
:107370009A885AB199680393002965D0304400F087
:1073800023FF039B22889B881344238095F82C308D
:10739000002B40F0A680287800283FF470AF2846E4
:1073A000314622463B46FFF783FE68E7082F7FF60B
:1073B00065AF04A8FFF772FE00287FF460AF238852
:1073C0000822F254238801339BB21B222380F254FB
:1073D0002088013080B22080062230440DF1110156
:1073E00000F0F2FE23889DF8102006339BB212F0C5
:1073F000FE0218BF01222380F254238801339BB27E
:1074000023800BE70433BB423FF638AF04A8FFF7F5
:1074100049FE00287FF433AF2388BDF810200321F4
:10742000F154238801339BB219212380F15423881E
:1074300001339BB2F1182380100AF254487023885C
:1074400002339BB22380EDE6072018E705F1080818
:1074500002218DE8900040460A463346FFF770FE51
:1074600000287FF40CAF8DE89000404606211022E2
:107470003346FFF765FE00287FF401AFEFE605F124
:1074800010088DE890004046032102223346FFF7A2
:1074900057FE00287FF4F3AE8DE8900040460721A8
:1074A00010223346FFF74CFE00287FF4E8AEDAE600
:1074B00005F118088DE89000404614210222334659
:1074C000FFF73EFE00287FF4DAAE8DE890004046DC
:1074D000152110223346FFF733FE00287FF4CFAE8C
:1074E000C5E6D5F82880B8F1000FADD0B8F8042073
:1074F0000232FE2A3FF6C2AE23884FF000094FF059
:10750000160A0132F254238801339BB2238006F815
:1075100003A0238801339BB22380B8F80020F254E3
:107520003344120A5A70238802339BB22380B8F87E
:107530000410F0180A4661B1D8F808301946002B3B
:1075400082D000F041FEB8F80430228813449BB288
:10755000238009F1010995F82C205FFA89F94A4541
:1075600009EB49087FF617AFAA6A02EB8808B8F85A
:1075700004200232FE2AC4D980E600BF2DE9F0477C
:1075800094B01F230D46ADF80E30044600285AD0A3
:10759000C278530753D590F82D300021ADF80C1068
:1075A000002B6BD18378002B40F0AB801846032171
:1075B00014AE5F1C0233304416FA87F716FA83F6CE
:1075C0004FF0020E8BB2012100F840ECADF80C3008
:1075D00007F8401C06F8402C6268B2B1D91C1F297C
:1075E000167828D814AF581C9A1C17FA80F03B4420
:1075F00017FA82F24FF0020E0A2703F840ECADF8BA
:107600000C1000F8407C02F8406C2389002B40F0FD
:107610008581238A002B40F09F81238B002B40F033
:10762000B981236A002B00F0D880BDF80C20911D91
:107630001F2940F28F800C2014B0BDE8F08707208E
:1076400014B0BDE8F087ADF80C00002D00F0048107
:10765000EB78002BF3D128460CA90DF10E02FFF7B1
:10766000CFFD0028ECD19DF80E300CAA20469DF8E5
:107670000C10FFF715FD14B0BDE8F0870CAF3846CD
:10768000FFF70CFD0028DBD1BDF80C3014AA03F184
:10769000010C12FA8CFC03F1020E13441FFA8EFE49
:1076A00004AE4FF008094FF01B0803F8409C0DF1A1
:1076B0003101062206EB0E000CF8408CADF80CE010
:1076C00000F082FDBDF80C209DF83010931D11F0E4
:1076D000FE019BB240F07C8114A8034403F8401CD7
:1076E000D31DA2789BB2ADF80C30002A40F0118176
:1076F000E278002A3FF470AFD91C1F2918469AD8A7
:1077000056E70CAF3846FFF7CDFC002898D1BDF8FE
:107710000C30BDF83070E278991C0DF1500E581CF9
:1077200089B204AE0EEB03091EFA80F0043306EBB7
:10773000010E4FF0030A4FF019089BB24FEA172CC5
:1077400009F840ACADF80C3000F8408C77548EF856
:1077500001C0CEE7188805287FF671AF6FF4486C3A
:1077600000EB0C06B6B24FF27D37BE427FF667AF34
:107770005E88052E7FF663AF6FF4486EB6441FFA3D
:107780008EFEBE457FF65BAF4FF6FF77B84204D062
:10779000BE4202D0B0423FF652AF14A8561C10FAB7
:1077A00086F600EB020E901C80B212274FF0050CFB
:1077B0000EF840CCADF80C0006F8407C1F88ADF800
:1077C0000C1004AE3118375404323F0A4F7092B295
:1077D0005B88B35432441B0A5370676A9FB3B888FE
:1077E000BDF80C30811C9A1C56181F2E3FF623AF93
:1077F000FE293FF620AF14AE591C06EB030E16FA15
:1078000081F192B20330FF260EF8400CADF80C2047
:1078100001F8406C398804AEB018B154090A4170BF
:107820000433BA8898B2ADF80C0062B1B968002987
:107830003FF405AF304400F0C7FCBDF80C30BA8807
:107840001344ADF80C3094F82C3053B904AE2378BF
:10785000002B53D13446F8E62B46ADF80E502A469D
:1078600004E7A76A002F3FF4EAAEB9880231FE2987
:107870003FF6E1AE9E46BDF80C304FF0000804AE76
:107880004FF0160914AA581C02EB030C12FA80F0F0
:107890009A1C92B201310CF8401CADF80C2000F893
:1078A000409C3988B1543244090A51700433B98874
:1078B0009BB20A46F018ADF80C3079B1BB68194696
:1078C000002B3FF4BCAE00F07FFCBDF80C30BA8852
:1078D00094F82CE013449BB2ADF80C3008F1010889
:1078E0005FFA88F8F04508EB4802B0D2A76A07EBC8
:1078F0008207B9880231FE29C4D99CE62046314668
:1079000003AA1F23FFF7D4FB00287FF499AE344667
:107910009BE604331F2B3FF68EAEF3E603AA04F179
:10792000080704AE4FF01F0802218DE80401384615
:1079300033460A46FFF704FC00287FF481AE03AB10
:107940008DE808013846334606211022FFF7F8FB80
:1079500000287FF475AE5CE603AA04F1100704AEBC
:107960004FF01F088DE804013846334603210222F8
:10797000FFF7E6FB00287FF463AE03AB8DE8080158
:107980003846334607211022FFF7DAFB00287FF440
:1079900057AE42E603AA04F1180704AE4FF01F08E1
:1079A0008DE804013846334614210222FFF7C8FB54
:1079B00000287FF445AE03AB8DE808013846334616
:1079C00015211022FFF7BCFB00287FF439AE28E612
:1079D00014A90B44012103F8401C81E60649074A1B
:1079E000074B9B1A03DD043BC858D050FBDC00F06A
:1079F00013F8FBF733FC0000A08B020020170020D7
:107A000038180020FEE7FEE7FEE7FEE7FEE7FEE7A8
:107A1000FEE7FEE7FEE7FEE7F0B4AF4B1B78062B70
:107A20001BD0AE4AD2F8883043F47003C2F88830D5
:107A3000BFF34F8FBFF36F8F4FF01023D3F80022A7
:107A4000002AC0F27381D3F80432002BC0F26E8199
:107A5000A34BA44A1A60F0BC7047A34B1B681907DC
:107A6000DFD1A24B1B6803F0F002302A00F08E80B9
:107A700003F0E003402B00F089809C4B1B6803F06F
:107A8000F003302B00F09280984B1B6803F0F0025B
:107A9000302A6BD003F0E003402B67D0934B1B6878
:107AA00003F0F003302B00F00681904B1B6803F0CD
:107AB000F002302A47D003F0E003402B43D08B4B39
:107AC0001B6803F0F003302B00F0E780874B1B6846
:107AD00003F0F003302B77D0844B1B6803F0F003E6
:107AE000502B00F08880814B1B6803F0F002302A95
:107AF00018D003F0E003402B14D07C4B1B6803F03C
:107B0000F002302A03D003F0E003402B89D14FF07C
:107B10008042D2F80034DB0783D56FF00103C2F84E
:107B200000347EE7724B734A1B6803F04F03136007
:107B3000694B1B78062B7FF474AF6B4B1B681907DE
:107B40007FF46FAFD9E74FF080430022C3F80C21D8
:107B5000C3F81021C3F838255F4B1B78062BE7D1FB
:107B6000614B1B681E077FF45CAFA8E7624B5A4A63
:107B70001B6812786149C3F34233062A0B602FD188
:107B8000594B1B681B077FF44CAF87E75C4B524A8D
:107B90001B6812785B49C3F30423062A0B60DBD110
:107BA000514B1B681A073FF468AF3AE74A4B564AF5
:107BB0001B7856491160062B7FF433AF4A4B1B6884
:107BC0001A077FF42EAF5FE7514E524C5249534B88
:107BD0000527012500203F223760256008601A60D4
:107BE0003D4B1B78062B7FF41CAF3F4B1B681C07DB
:107BF0007FF417AF70E74FF08052494BD2F804146E
:107C0000C3F82015D2F80814C3F82415D2F80C14C0
:107C1000C3F82815D2F81014C3F82C15D2F8141490
:107C2000C3F83015D2F81814C3F83415D2F81C1460
:107C3000C3F84015D2F82014C3F84415D2F8241420
:107C4000C3F84815D2F82814C3F84C15D2F82C14F0
:107C5000C3F85015D2F83014C3F85415D2F83414C0
:107C6000C3F86015D2F83814C3F86415D2F83C1480
:107C7000C3F86815D2F84014C3F86C151649D2F849
:107C80004424C3F870250B78062B7FF4CAAE164B3C
:107C90001B6818077FF4C5AE25E70F4B214A1B78F8
:107CA0000321062B11607FF4BCAE0F4B1B681D0730
:107CB0007FF4B7AE0AE71C49074BCA681B7822F06D
:107CC0008072062BCA607FF4ACAE074B1B681F079F
:107CD0007FF4A7AEE9E600BFE00F00F000ED00E0A2
:107CE0004C1700200090D003E40F00F0E80F00F0E4
:107CF00058020010E40E0040440200103C05004011
:107D0000240300104035014074C007400DF0ADBAA7
:107D10001056004088560040185600401456004047
:107D200000C00040A0050040F0ED00E0184B01222B
:107D3000C3F80425D3F80024002AFBD04FF0102309
:107D400015221349C3F80022D1F80034002BFBD0D0
:107D50004FF0102315220E49C3F80422D1F8002455
:107D60000B4B002AFAD00022C3F80425D3F80024D4
:107D7000002AFBD0BFF34F8F0649074BCA6802F4B5
:107D8000E0621343CB60BFF34F8F00BFFDE700BF3E
:107D900000E0014000ED00E00400FA0510DF70474C
:107DA00070B5354C237884B013B1082004B070BD91
:107DB000324D3349012302A82B70FDF72FFA039BA4
:107DC0005BB11A685968002090470028EED002A8DD
:107DD000FDF72EFA039B002BF3D102A82949FDF7EA
:107DE0001DFA039B4BB11A6859680020904702A8FE
:107DF000FDF71EFA039B002BF5D1234B234918688E
:107E0000019001A8FFF7CAFF0028CFD1204A214ED8
:107E10002870E02301212170307082F8163382F837
:107E2000153392F816335B09991E052919D8042BCE
:107E300017D0194B9968C9B94FF48003136002A891
:107E40001049FDF7EBF9039B4BB11A685968012003
:107E5000904702A8FDF7ECF9039B002BF5D1002019
:107E6000A4E742F20200FCF779F8E8E71A6842F466
:107E700080021A60E3E700BF951F0020961F0020D4
:107E8000C4870200D0870200C08702007D3F020045
:107E900000E100E0971F0020981F0020014B187898
:107EA000704700BF951F002000B583B068460849A1
:107EB000FDF7B4F9019B43B158681A6890476846CA
:107EC000FDF7B6F9019B002BF6D103B05DF804FB7A
:107ED000E487020060DF704769DF704761DF704749
:107EE00010B5382492B004A80DF10601ADF8064093
:107EF000FFF7F4FF88B902A80B49FDF78FF9039B40
:107F0000002BF0D01A68596804A8904702A8FDF722
:107F10008FF9039B002BF5D1E5E7052801D0FCF78D
:107F20001DF812B010BD00BFF087020070B50C46FE
:107F300084B0002974D04F4B0B60054600210C2201
:107F400001A800F04CF90126032301A92020226892
:107F50008DF804508DF80660ADF80830FFF7BCFFCF
:107F6000002860D100210C2201A800F038F900237C
:107F7000402001A922688DF804308DF805308DF875
:107F80000630FFF7A9FF78BB00210C2201A800F002
:107F900026F90023012001A922688DF80430FFF79B
:107FA0009BFF002858D100210C2201A800F017F9EE
:107FB000F823A12001A922680193FFF78DFF002873
:107FC0003DD100210C2201A800F009F99DF80430F0
:107FD00022686FF3000301A9A0208DF80430FFF799
:107FE0007BFF70B904B070BD234B1D88FDF72CF9E1
:107FF0002D0445F00105024620492846FBF7AEFC5A
:10800000C2E71D4B1C88FDF71FF9240444F001044E
:1080100002461B492046FBF7A1FC002004B070BDBE
:108020000E2004B070BD144B1D88FDF70DF92D0412
:108030003543024613492846FBF790FC92E70E4B66
:108040001D88FDF701F92D0445F0010502460E4992
:108050002846FBF783FCB4E7074B1D88FDF7F4F8CF
:108060002D0445F00105024608492846FBF776FC39
:1080700099E700BF20170020FC1700204488020069
:1080800030890200FC870200DC8802009088020030
:10809000F8B504460668FFF71DFF2368B34205469E
:1080A00018D0144F144938880004324640F00200BA
:1080B000FBF71AFD4FF080533888D3F80C31226853
:1080C0000E499B02000403F1005340F002009A1A8B
:1080D000FBF744FC65B1074B28461C88FDF7B4F854
:1080E000240444F00104024605492046FBF736FC0F
:1080F0002846F8BDFC17002084890200B4890200DC
:10810000D889020048DF704700B585B001A8FFF7A5
:10811000F9FFA8B902A80E49FDF780F8039B002BD0
:10812000F4D01A6859680198904702A8FDF780F8C2
:10813000039B002BF5D101A8FFF7E4FF0028E9D04D
:10814000052801D0FBF70AFF05B05DF804FB00BF6E
:10815000048A020008B5074B044613B10021AFF3AF
:108160000080054B1868836A03B19847204600F0E9
:1081700047F800BF00000000208B020070B50E4BD6
:108180000E4CE41AA41000251E46A54204D056F851
:10819000253098470135F8E700F034F8084C094BD2
:1081A000E41AA41000251E46A54204D056F8253036
:1081B00098470135F8E770BDB4170020B4170020C8
:1081C000B8170020B417002010B5431E0A4491428E
:1081D00004D011F8014B03F8014FF8E710BD024439
:1081E0000346934202D003F8011BFAE770470346A7
:1081F00013F8012B002AFBD1181A01387047000030
:10820000FEE700BFF8B500BFF8BC08BC9E4670474B
:10821000F8B500BFF8BC08BC9E467047FFFFFFFFE3
:10822000FFFFFFFFFFFFFFFFFFFFFFFF000000005A
:10823000000000000000D601070100001534020014
:10824000C1330200BD33020061707000B81C002011
:10825000C01C0020C81C0020C81C00201800000002
:10826000000000000883020010830200188302004F
:1082700020830200A8820200C8820200D08202008D
:10828000D8820200E0820200E8820200F08202004E
:10829000F882020000830200257300003C25733E33
:1082A0002025733A200000001B5B306D00000000A9
:1082B0000D0A000020253032780000002020200028
:1082C0007C000000256300001B5B313B33306D00F8
:1082D0001B5B313B33316D001B5B313B33326D0037
:1082E0001B5B313B33336D001B5B313B33346D0023
:1082F0001B5B313B33356D001B5B313B33366D000F
:108300001B5B313B33376D006572726F720000008A
:108310007761726E696E6700696E666F00000000BB
:108320006465627567000000466174616C20657267
:10833000726F720053797374656D20726573657422
:108340000000000062616C6C6F63000030313233FA
:108350003435363738394142434445467077725F89
:108360006D676D74000000004E52465F53554343E5
:10837000455353004E52465F4552524F525F53563B
:10838000435F48414E444C45525F4D495353494E1B
:10839000470000004E52465F4552524F525F534FC6
:1083A00046544445564943455F4E4F545F454E4100
:1083B000424C4544000000004E52465F4552524F29
:1083C000525F494E5445524E414C00004E52465F5A
:1083D0004552524F525F4E4F5F4D454D00000000D9
:1083E0004E52465F4552524F525F4E4F545F464F7A
:1083F000554E44004E52465F4552524F525F4E4FCB
:10840000545F535550504F52544544004E52465FAE
:108410004552524F525F494E56414C49445F50417C
:1084200052414D004E52465F4552524F525F494EA7
:1084300056414C49445F5354415445004E52465FA7
:108440004552524F525F494E56414C49445F4C454C
:108450004E475448000000004E52465F4552524F6E
:10846000525F494E56414C49445F464C4147530088
:108470004E52465F4552524F525F494E56414C490B
:10848000445F4441544100004E52465F4552524FB2
:10849000525F444154415F53495A45004E52465F32
:1084A0004552524F525F54494D454F5554000000BC
:1084B0004E52465F4552524F525F4E554C4C000053
:1084C0004E52465F4552524F525F464F52424944C8
:1084D00044454E004E52465F4552524F525F494E00
:1084E00056414C49445F4144445200004E52465F5D
:1084F0004552524F525F4255535900004E52465F0B
:108500004552524F525F4D4F44554C455F4E4F546C
:108510005F494E495449414C5A4544004E52465FCA
:108520004552524F525F4D555445585F494E49543C
:108530005F4641494C4544004E52465F4552524FBA
:10854000525F4D555445585F4C4F434B5F46414930
:108550004C4544004E52465F4552524F525F4D5576
:108560005445585F554E4C4F434B5F4641494C452F
:10857000440000004E52465F4552524F525F4D55E7
:108580005445585F434F4E445F494E49545F4641FE
:10859000494C4544000000004E52465F4552524F40
:1085A000525F4D4F44554C455F414C5245414459F3
:1085B0005F494E495449414C495A45440000000026
:1085C0004E52465F4552524F525F53544F524147AD
:1085D000455F46554C4C00004E52465F4552524F47
:1085E000525F4150495F4E4F545F494D504C454D8D
:1085F000454E5445440000004E52465F4552524F8E
:10860000525F464541545552455F4E4F545F454E6B
:1086100041424C45440000004E52465F4552524F85
:10862000525F4452565F5457495F4552525F4F560E
:10863000455252554E0000004E52465F4552524F31
:10864000525F4452565F5457495F4552525F414E04
:1086500041434B004E52465F4552524F525F445287
:10866000565F5457495F4552525F444E41434B0059
:108670000000000068830200010000007483020013
:10868000020000009483020003000000B88302008F
:1086900004000000CC83020005000000E08302001B
:1086A00006000000F4830200070000000C840200B2
:1086B0000800000024840200090000003C8402003D
:1086C0000A000000588402000B00000070840200C1
:1086D0000C000000888402000D0000009C84020051
:1086E0000E000000B08402000F000000C0840200F1
:1086F00010000000D484020011000000EC8402008D
:1087000080000000FC840200810000001C85020043
:1087100082000000388502008300000054850200BA
:108720008400000074850200850000009885020026
:1087300086000000C085020090000000D88502007D
:1087400091000000F88502000082000018860200F7
:108750000182000038860200028200005486020076
:10876000556E6B6E6F776E206572726F7220636FDD
:1087700064650000636C6F636B0000006770696F75
:108780007465000075617274000000007477690000
:1087900058E000000030004000000000424C455FFF
:1087A00044000000426561636F6E206578616D7002
:1087B0006C6520737461727465642E00641F002000
:1087C00001000007808B0200808B0200080000007F
:1087D000808B0200888B0200080000006E72665FCA
:1087E00073646800888B0200988B02000800000008
:1087F000308B0200308B02000800000073645F625F
:108800006C655F6366675F736574282920726574A1
:1088100075726E6564202573207768656E206174BB
:1088200074656D7074696E6720746F207365742051
:10883000424C455F434F4E4E5F4346475F47415072
:108840002E00000073645F626C655F6366675F7330
:10885000657428292072657475726E6564202573AD
:10886000207768656E20617474656D7074696E67D9
:1088700020746F2073657420424C455F4741505F00
:108880004346475F524F4C455F434F554E542E0071
:1088900073645F626C655F6366675F7365742829E4
:1088A0002072657475726E65642025732077686523
:1088B0006E20617474656D7074696E6720746F20CA
:1088C00073657420424C455F434F4D4D4F4E5F439F
:1088D00046475F56535F555549442E0073645F62A7
:1088E0006C655F6366675F736574282920726574C1
:1088F00075726E6564202573207768656E206174DB
:1089000074656D7074696E6720746F207365742070
:10891000424C455F47415454535F4346475F41547F
:1089200054525F5441425F53495A452E00000000A3
:1089300073645F626C655F6366675F736574282943
:108940002072657475726E65642025732077686582
:108950006E20617474656D7074696E6720746F2029
:1089600073657420424C455F47415454535F4346FE
:10897000475F534552564943455F4348414E47453B
:10898000442E000052414D20737461727473206153
:108990007420307825782C2063616E206265206118
:1089A000646A757374656420746F20307825782E3E
:1089B0000000000052414D2073697A652063616EAA
:1089C0002062652061646A757374656420746F2029
:1089D000307825782E00000073645F626C655F65F7
:1089E0006E61626C6528292072657475726E6564AB
:1089F0002025732E000000006E72665F7364685F4E
:108A0000626C6500288B0200308B020008000000B9
:108A10006E72665F7364685F736F6300002020206E
:108A2000202020202020282828282820202020201E
:108A300020202020202020202020202020881010EE
:108A4000101010101010101010101010100404044A
:108A50000404040404040410101010101010414108
:108A600041414141010101010101010101010101F6
:108A7000010101010101010110101010101042420A
:108A800042424242020202020202020202020202C6
:108A90000202020202020202101010102000000066
:108AA00000000000000000000000000000000000C6
:108AB00000000000000000000000000000000000B6
:108AC00000000000000000000000000000000000A6
:108AD0000000000000000000000000000000000096
